{"abi":[{"type":"constructor","inputs":[{"name":"cusdc","type":"address","internalType":"address"},{"name":"treasury_","type":"address","internalType":"address"}],"stateMutability":"nonpayable"},{"type":"function","name":"auctionCount","inputs":[],"outputs":[{"name":"","type":"uint256","internalType":"uint256"}],"stateMutability":"view"},{"type":"function","name":"bidCount","inputs":[{"name":"auctionId","type":"uint256","internalType":"uint256"}],"outputs":[{"name":"","type":"uint256","internalType":"uint256"}],"stateMutability":"view"},{"type":"function","name":"cUSDC","inputs":[],"outputs":[{"name":"","type":"address","internalType":"contract IConfidentialUSDC"}],"stateMutability":"view"},{"type":"function","name":"confidentialProtocolId","inputs":[],"outputs":[{"name":"","type":"uint256","internalType":"uint256"}],"stateMutability":"view"},{"type":"function","name":"createAuctionItem","inputs":[{"name":"itemName","type":"string","internalType":"string"},{"name":"itemDescription","type":"string","internalType":"string"},{"name":"minBidPlain","type":"uint64","internalType":"uint64"},{"name":"durationSeconds","type":"uint64","internalType":"uint64"}],"outputs":[{"name":"auctionId","type":"uint256","internalType":"uint256"}],"stateMutability":"payable"},{"type":"function","name":"createAuctionToken","inputs":[{"name":"itemName","type":"string","internalType":"string"},{"name":"itemDescription","type":"string","internalType":"string"},{"name":"tokenX","type":"address","internalType":"address"},{"name":"supply","type":"uint256","internalType":"uint256"},{"name":"minBidPlain","type":"uint64","internalType":"uint64"},{"name":"durationSeconds","type":"uint64","internalType":"uint64"}],"outputs":[{"name":"auctionId","type":"uint256","internalType":"uint256"}],"stateMutability":"payable"},{"type":"function","name":"endAuction","inputs":[{"name":"auctionId","type":"uint256","internalType":"uint256"}],"outputs":[],"stateMutability":"nonpayable"},{"type":"function","name":"finalizeAuctionItem","inputs":[{"name":"auctionId","type":"uint256","internalType":"uint256"},{"name":"winner","type":"address","internalType":"address"},{"name":"winningAmount","type":"uint64","internalType":"uint64"},{"name":"decryptionProof","type":"bytes","internalType":"bytes"}],"outputs":[],"stateMutability":"nonpayable"},{"type":"function","name":"finalizeAuctionToken","inputs":[{"name":"auctionId","type":"uint256","internalType":"uint256"},{"name":"prices","type":"uint64[]","internalType":"uint64[]"},{"name":"qtys","type":"uint64[]","internalType":"uint64[]"},{"name":"decryptionProof","type":"bytes","internalType":"bytes"}],"outputs":[],"stateMutability":"nonpayable"},{"type":"function","name":"getAuction","inputs":[{"name":"auctionId","type":"uint256","internalType":"uint256"}],"outputs":[{"name":"","type":"tuple","internalType":"struct SilentBidAuction.Auction","components":[{"name":"mode","type":"uint8","internalType":"enum SilentBidAuction.Mode"},{"name":"seller","type":"address","internalType":"address"},{"name":"itemName","type":"string","internalType":"string"},{"name":"itemDescription","type":"string","internalType":"string"},{"name":"tokenX","type":"address","internalType":"address"},{"name":"totalSupply","type":"uint256","internalType":"uint256"},{"name":"minBidPlain","type":"uint64","internalType":"uint64"},{"name":"minBidEnc","type":"bytes32","internalType":"euint64"},{"name":"endTime","type":"uint64","internalType":"uint64"},{"name":"ended","type":"bool","internalType":"bool"},{"name":"finalized","type":"bool","internalType":"bool"},{"name":"runningHighestBid","type":"bytes32","internalType":"euint64"},{"name":"runningHighestBidder","type":"bytes32","internalType":"eaddress"},{"name":"winnerPlain","type":"address","internalType":"address"},{"name":"winningAmountPlain","type":"uint64","internalType":"uint64"},{"name":"clearingPricePlain","type":"uint64","internalType":"uint64"},{"name":"unsoldReturned","type":"uint256","internalType":"uint256"},{"name":"gasDeposit","type":"uint256","internalType":"uint256"}]}],"stateMutability":"view"},{"type":"function","name":"getBid","inputs":[{"name":"auctionId","type":"uint256","internalType":"uint256"},{"name":"idx","type":"uint256","internalType":"uint256"}],"outputs":[{"name":"bidder","type":"address","internalType":"address"},{"name":"encPriceHandle","type":"bytes32","internalType":"bytes32"},{"name":"encQtyHandle","type":"bytes32","internalType":"bytes32"},{"name":"encEscrowHandle","type":"bytes32","internalType":"bytes32"},{"name":"settled","type":"bool","internalType":"bool"},{"name":"allocatedTokenX","type":"uint256","internalType":"uint256"},{"name":"refundedCUSDC","type":"uint64","internalType":"uint64"}],"stateMutability":"view"},{"type":"function","name":"hasBid","inputs":[{"name":"","type":"uint256","internalType":"uint256"},{"name":"","type":"address","internalType":"address"}],"outputs":[{"name":"","type":"bool","internalType":"bool"}],"stateMutability":"view"},{"type":"function","name":"nextAuctionId","inputs":[],"outputs":[{"name":"","type":"uint256","internalType":"uint256"}],"stateMutability":"view"},{"type":"function","name":"placeBid","inputs":[{"name":"auctionId","type":"uint256","internalType":"uint256"},{"name":"encExtPrice","type":"bytes32","internalType":"externalEuint64"},{"name":"encExtQty","type":"bytes32","internalType":"externalEuint64"},{"name":"priceProof","type":"bytes","internalType":"bytes"},{"name":"qtyProof","type":"bytes","internalType":"bytes"}],"outputs":[{"name":"bidIndex","type":"uint256","internalType":"uint256"}],"stateMutability":"nonpayable"},{"type":"function","name":"treasury","inputs":[],"outputs":[{"name":"","type":"address","internalType":"contract ITreasury"}],"stateMutability":"view"},{"type":"event","name":"AuctionCreatedItem","inputs":[{"name":"auctionId","type":"uint256","indexed":true,"internalType":"uint256"},{"name":"seller","type":"address","indexed":true,"internalType":"address"},{"name":"itemName","type":"string","indexed":false,"internalType":"string"},{"name":"minBidPlain","type":"uint64","indexed":false,"internalType":"uint64"},{"name":"endTime","type":"uint64","indexed":false,"internalType":"uint64"},{"name":"gasDeposit","type":"uint256","indexed":false,"internalType":"uint256"}],"anonymous":false},{"type":"event","name":"AuctionCreatedToken","inputs":[{"name":"auctionId","type":"uint256","indexed":true,"internalType":"uint256"},{"name":"seller","type":"address","indexed":true,"internalType":"address"},{"name":"tokenX","type":"address","indexed":true,"internalType":"address"},{"name":"supply","type":"uint256","indexed":false,"internalType":"uint256"},{"name":"minBidPlain","type":"uint64","indexed":false,"internalType":"uint64"},{"name":"endTime","type":"uint64","indexed":false,"internalType":"uint64"},{"name":"gasDeposit","type":"uint256","indexed":false,"internalType":"uint256"}],"anonymous":false},{"type":"event","name":"AuctionEnded","inputs":[{"name":"auctionId","type":"uint256","indexed":true,"internalType":"uint256"}],"anonymous":false},{"type":"event","name":"AuctionFinalizedItem","inputs":[{"name":"auctionId","type":"uint256","indexed":true,"internalType":"uint256"},{"name":"winner","type":"address","indexed":true,"internalType":"address"},{"name":"amount","type":"uint64","indexed":false,"internalType":"uint64"},{"name":"fee","type":"uint64","indexed":false,"internalType":"uint64"}],"anonymous":false},{"type":"event","name":"AuctionFinalizedToken","inputs":[{"name":"auctionId","type":"uint256","indexed":true,"internalType":"uint256"},{"name":"clearingPrice","type":"uint64","indexed":false,"internalType":"uint64"},{"name":"totalAllocated","type":"uint256","indexed":false,"internalType":"uint256"},{"name":"unsoldReturned","type":"uint256","indexed":false,"internalType":"uint256"},{"name":"fee","type":"uint64","indexed":false,"internalType":"uint64"}],"anonymous":false},{"type":"event","name":"BidPlaced","inputs":[{"name":"auctionId","type":"uint256","indexed":true,"internalType":"uint256"},{"name":"bidIndex","type":"uint256","indexed":true,"internalType":"uint256"},{"name":"bidder","type":"address","indexed":true,"internalType":"address"},{"name":"encPriceHandle","type":"bytes32","indexed":false,"internalType":"bytes32"},{"name":"encQtyHandle","type":"bytes32","indexed":false,"internalType":"bytes32"}],"anonymous":false},{"type":"event","name":"BidSettled","inputs":[{"name":"auctionId","type":"uint256","indexed":true,"internalType":"uint256"},{"name":"bidIndex","type":"uint256","indexed":true,"internalType":"uint256"},{"name":"bidder","type":"address","indexed":true,"internalType":"address"},{"name":"isWinner","type":"bool","indexed":false,"internalType":"bool"},{"name":"allocatedTokenX","type":"uint256","indexed":false,"internalType":"uint256"},{"name":"refundedCUSDC","type":"uint64","indexed":false,"internalType":"uint64"}],"anonymous":false},{"type":"event","name":"PublicDecryptionVerified","inputs":[{"name":"handlesList","type":"bytes32[]","indexed":false,"internalType":"bytes32[]"},{"name":"abiEncodedCleartexts","type":"bytes","indexed":false,"internalType":"bytes"}],"anonymous":false},{"type":"error","name":"AlreadyBid","inputs":[]},{"type":"error","name":"AuctionAlreadyEnded","inputs":[]},{"type":"error","name":"AuctionAlreadyFinalized","inputs":[]},{"type":"error","name":"AuctionNotEnded","inputs":[]},{"type":"error","name":"AuctionNotFinalizedYet","inputs":[]},{"type":"error","name":"AuctionNotFound","inputs":[]},{"type":"error","name":"DurationTooShort","inputs":[]},{"type":"error","name":"InvalidKMSSignatures","inputs":[]},{"type":"error","name":"LengthMismatch","inputs":[]},{"type":"error","name":"ReentrancyGuardReentrantCall","inputs":[]},{"type":"error","name":"SafeERC20FailedOperation","inputs":[{"name":"token","type":"address","internalType":"address"}]},{"type":"error","name":"SellerCannotBid","inputs":[]},{"type":"error","name":"SenderNotAllowedToUseHandle","inputs":[{"name":"handle","type":"bytes32","internalType":"bytes32"},{"name":"sender","type":"address","internalType":"address"}]},{"type":"error","name":"TooEarly","inputs":[]},{"type":"error","name":"WrongMode","inputs":[]},{"type":"error","name":"ZamaProtocolUnsupported","inputs":[]},{"type":"error","name":"ZeroAddress","inputs":[]},{"type":"error","name":"ZeroAmount","inputs":[]}],"bytecode":{"object":"0x60c06040523461030057604051601f61373038819003918201601f19168301916001600160401b0383118484101761030457808492604094855283398101031261030057610058602061005183610337565b9201610337565b9061006161034b565b504660010361021c5761007261034b565b5061007b610318565b73ca2e8f1f656cd25c01f05d0b243ab1ecd4a8ffb6815273d82385dada1ae3e969447f20a3164f6213100e7560208201527377627828a55156b04ac0dc0eb30467f1a552bb0360408201525b80517f9e7b61f58c47dc699ac88507c4f5bb9f121c03808c5676a8078fe583e464970080546001600160a01b03199081166001600160a01b039384161790915560208301517f9e7b61f58c47dc699ac88507c4f5bb9f121c03808c5676a8078fe583e4649701805483169184169190911790556040909201517f9e7b61f58c47dc699ac88507c4f5bb9f121c03808c5676a8078fe583e464970280549093169082161790915560015f55168015801561020b575b6101fc576080526001600160a01b031660a0526040516133ca9081610366823960805181818161043901528181610649015281816106e301528181610cec01528181610dc601528181610e8001528181610fb9015281816113840152611682015260a05181818161029201528181610a2301528181610ebb01526124310152f35b63d92e233d60e01b5f5260045ffd5b506001600160a01b0382161561017b565b4662aa36a7036102875761022e61034b565b50610237610318565b73f0ffdc93b7e186bc2f8cb3daa75d86d1930a433d81527392c920834ec8941d2c77d188936e1f7a6f49c127602082015273be0e383937d564d7ff0bc3b46c51f0bf8d5c311a60408201526100c7565b46617a69036102f15761029861034b565b506102a1610318565b7350157cffd6bbfa2dece204a89ec419c23ef5755d815273e3a9105a3a932253a70f126eb1e3b589c643dd24602082015273901f8942346f7ab3a01f6d7613119bca447bb03060408201526100c7565b6373cac13b60e01b5f5260045ffd5b5f80fd5b634e487b7160e01b5f52604160045260245ffd5b60405190606082016001600160401b0381118382101761030457604052565b51906001600160a01b038216820361030057565b610353610318565b905f82525f60208301525f604083015256fe6080806040526004361015610012575f80fd5b5f3560e01c9081632ad7157314612968575080632ce8f4881461252d578063449e8812146124e3578063582c7ffd1461245557806361d027b31461241257806378bd7935146121105780638927b030146120ee578063976458e214611cb6578063b9075d0214611533578063b9a2de3a146113d2578063b9a958b4146113a8578063ce347a3e14611365578063d0bb54e81461081f578063e6985c25146100e25763fc528482146100c1575f80fd5b346100de575f3660031901126100de576020600154604051908152f35b5f80fd5b346100de5760803660031901126100de576004356100fe6129af565b906101076129c5565b6064356001600160401b0381116100de57610126903690600401612982565b939091610131612f08565b835f52600260205260405f2060ff815416600281101561080b576107fc576007810191825460ff8160401c16156107ed5760481c60ff166107de5760609360405161017c8682612aca565b60028152601f198601366020830137600984015461019982612c35565b5260088401548151600110156107ca576101f6926001600160a01b0391604084015216986101f06001600160401b03851698604051928c60208501528a6040850152604084526101e98a85612aca565b3691612b8b565b91612fb9565b600a820180547fffffffff0000000000000000ffffffffffffffffffffffffffffffffffffffff89167fffffffff000000000000000000000000000000000000000000000000000000009091161760a09290921b7bffffffffffffffff000000000000000000000000000000000000000016919091179055600b8101805467ffffffffffffffff19168517905560405163b8606eef60e01b81527f00000000000000000000000000000000000000000000000000000000000000006001600160a01b03169190602081600481865afa908115610574576102ee61ffff6001600160401b0393612710935f9161079b575b501688612c70565b041693865f52600360205260405f2054915f5b83811061035e5789897f515a9c163273f3db224695f29bccf98250f41d89b29471a7c1d1e8a6ed121c6260408b8b8b690100000000000000000069ff0000000000000000001982541617905582519182526020820152a360015f55005b885f5260036020526103738160405f20612a95565b509060048201805460ff81166107905760ff1916600117905581546001600160a01b03168b81036106a757508715610606576103ae88613125565b916003810154928084156105f6575b81156105e4575b60209060646001600160a01b035f5160206133755f395f51905f525416965f60405198899485936303056db360e31b8552600485015260248401528160448401525af1938415610574575f946105b1575b5061041f81612c83565b5061042984612c83565b506104a760206001600160a01b037f000000000000000000000000000000000000000000000000000000000000000016956104648785612ec3565b5061046f8782612ec3565b50875460405163170856b560e01b815260089190911c6001600160a01b03166004820152602481019190915291829081906044820190565b03815f895af180156105745761057f575b5060405163170856b560e01b81526001600160a01b0389166004820152602481019190915292602090849060449082905f905af1908115610574576001936001600160a01b0392610546575b505b5416818b7fc3c93c50dc9a3409ed97610c7a5471b7f3c3ded7df7a654fee3dbfb33970fcc8876040518781525f60208201525f6040820152a45b01610301565b6105669060203d811161056d575b61055e8183612aca565b810190612bd0565b508d610504565b503d610554565b6040513d5f823e3d90fd5b906020823d82116105a9575b8161059860209383612aca565b810103126100de57905060206104b8565b3d915061058b565b9093506020813d82116105dc575b816105cc60209383612aca565b810103126100de5751928d610415565b3d91506105bf565b5060206105ef6131a3565b90506103c4565b93506106006131a3565b936103bd565b8254600383015460405163170856b560e01b815260089290921c6001600160a01b03166004830152602482015291602083806044810103815f6001600160a01b037f0000000000000000000000000000000000000000000000000000000000000000165af1908115610574576001936001600160a01b0392610689575b50610506565b6106a09060203d811161056d5761055e8183612aca565b508d610683565b600383015460405163170856b560e01b81526001600160a01b0390921660048301526024820152602081806044810103815f6001600160a01b037f0000000000000000000000000000000000000000000000000000000000000000165af180156105745761075a575b506001600160a01b036001925416818b7fc3c93c50dc9a3409ed97610c7a5471b7f3c3ded7df7a654fee3dbfb33970fcc8876040515f81525f60208201525f6040820152a4610540565b6020813d8211610788575b8161077260209383612aca565b810103126100de57506001600160a01b03610710565b3d9150610765565b505060019150610540565b6107bd915060203d6020116107c3575b6107b58183612aca565b810190612c56565b8c6102e6565b503d6107ab565b634e487b7160e01b5f52603260045260245ffd5b63059fb38360e51b5f5260045ffd5b636463738960e01b5f5260045ffd5b632a580d6d60e01b5f5260045ffd5b634e487b7160e01b5f52602160045260245ffd5b346100de5760803660031901126100de576024356001600160401b0381116100de5761084f9036906004016129ff565b6044356001600160401b0381116100de5761086e9036906004016129ff565b906064356001600160401b0381116100de5761088e903690600401612982565b610899929192612f08565b6004355f52600260205260405f209260ff845416600281101561080b576001036107fc57600784015460ff8160401c16156107ed5760481c60ff166107de576004355f52600360205260405f209081549283881480159061135b575b61134c578360011b9380850460021481151715610f405761091e61091886612c03565b95612c03565b935f5b8281106112a857505050604051926040840160208086015281518091526020606086019201905f5b81811061129257505050916101f0916101e98561097097969503601f198101865285612aca565b6004820154906001600160401b036005840154169461098e81612c03565b9061099881612c03565b935f97825f5b8b82821061122a57505050505f5b8881106111785750935f975f955f925b8284106110f4575b50505050600b85016001600160401b0388166001600160401b03198254161790555f956004355f52600260205260405f20986004355f52600360205260405f20946040519263b8606eef60e01b84526020846004816001600160a01b037f0000000000000000000000000000000000000000000000000000000000000000165afa938415610574575f946110d3575b508654965f5b888110610b1a578c6001600160401b038d8d8d610a7a816004840154612bdf565b9182610aef575b82600c8201556007690100000000000000000069ff000000000000000000198284015416179101558360405195168552602085015260408401521660608201527f79031c0c9633e1c3830f15ec9be612d8649c8de6373e78b2518ad4821bd5444e608060043592a260015f55005b610b15836001600160a01b036003840154166001600160a01b03845460081c1690612f4a565b610a81565b8d9b8d610b278385612a95565b509160048301805460ff81166110c55760ff19166001179055610b4a848c612c42565b51908115610f72578f8a88848b8f948e8b80925460081c6001600160a01b031697610b7492612f26565b610b7d90612f36565b93610b8792612f26565b610b9090612f36565b966001600160401b031690610ba491612c70565b956001600160401b0316906001600160401b031690610bc291612c70565b9485811115610f5457506001600160401b03612710610bf761ffff83610bee81808c165b16809b612bdf565b16941688612c70565b0416918286036001600160401b038111610f40578896610d8b575b505080610cc8575b8360058701556001600160401b03166001600160401b0319600687015416176006860155610c4791612a75565b9e600301546001600160a01b03168184546001600160a01b0316610c6a92612f4a565b82546001600160a01b031692600601546001600160401b03166040519160018352602083015260408201526004359060607fc3c93c50dc9a3409ed97610c7a5471b7f3c3ded7df7a654fee3dbfb33970fcc891a46001905b01610a59565b610d5594506020610cd882613125565b610ce181612c83565b506001600160a01b037f000000000000000000000000000000000000000000000000000000000000000016610d168183612ec3565b506001600160a01b038954165f604051809a8195829463170856b560e01b845260048401602090939291936001600160a01b0360408201951681520152565b03925af1948515610574578795610d6d575b50610c1a565b610d849060203d811161056d5761055e8183612aca565b505f610d67565b83610e5b575b6001600160401b03168015610c1257610e25965090610db1602092613125565b90610dbb82612c83565b506001600160a01b037f00000000000000000000000000000000000000000000000000000000000000001690610df18284612ec3565b505f604051809a8195829463170856b560e01b845260048401602090939291936001600160a01b0360408201951681520152565b03925af1948515610574578795610e3d575b80610c12565b610e549060203d811161056d5761055e8183612aca565b505f610e37565b5f96506020610eff610e6c86613125565b610e7581612c83565b506001600160a01b037f00000000000000000000000000000000000000000000000000000000000000001690610eab8282612ec3565b5060405163170856b560e01b81527f00000000000000000000000000000000000000000000000000000000000000006001600160a01b031660048201526024810191909152998a9283919082906044820190565b03925af19081156105745789976001600160401b0392610f22575b509050610d91565b610f399060203d811161056d5761055e8183612aca565b505f610f1a565b634e487b7160e01b5f52601160045260245ffd5b612710610bf761ffff6001600160401b03610bee8180809716610be6565b8354600385015460405163170856b560e01b81526001600160a01b0390921660048301526024820152909f50939291506020905083806044810103815f6001600160a01b037f0000000000000000000000000000000000000000000000000000000000000000165af1801561057457898888958893611085575b506001600160401b036110306001978261102961101d8a80998461102261101d84839d6001600160a01b039d612f26565b612f36565b1695612f26565b1690612c70565b16938260068201951683198654161785555416925416604051905f82525f602083015260408201527fc3c93c50dc9a3409ed97610c7a5471b7f3c3ded7df7a654fee3dbfb33970fcc8606060043592a4610cc2565b95505050506020833d82116110bd575b816110a260209383612aca565b810103126100de578592508489886001600160401b03610fec565b3d9150611095565b50509d505050600190610cc2565b6110ed91945060203d6020116107c3576107b58183612aca565b928c610a53565b90919299821561117257506111098a82612c42565b51966001600160401b0361112161101d8a8d8b612f26565b16838111611167576111419080945b8161113b8c8b612c42565b52612bdf565b928101809111610f405761115d61101d8d99876001949b612f26565b9a019291906109bc565b506111418380611130565b996109c4565b8060018201808311610f40575b878c8c83106111d757505050908181600193036111a4575b50016109ac565b6111ae8189612c42565b51906111c56111bd848b612c42565b51918a612c42565b526111d08289612c42565b528b61119d565b6001600160401b0361121161101d82938a61120a8961120461101d6111fc8c8c612c42565b518587612f26565b98612c42565b5191612f26565b16911611611222575b600101611185565b90508061121a565b6001600160401b0361124361101d846001968895612f26565b16101580611273575b611259575b01839061099e565b8061126d6112668d612a2f565b9c8a612c42565b52611251565b506001600160401b0361128a61101d838d8b612f26565b16151561124c565b8251845260209384019390920191600101610949565b60016112b48284612a95565b500154818060011b0460021482151715610f40576112d58260011b89612c42565b5260026112e28284612a95565b50015490600181811b01808260011b11610f40576113456001600160401b038f8f8f86908f8f8f908761133261101d8760019f9961133d9b8f9b61132c61101d9d61132c99612c42565b52612f26565b1691858d1b90612c42565b169189612c42565b5201610921565b631fec674760e31b5f5260045ffd5b50838714156108f5565b346100de575f3660031901126100de5760206040516001600160a01b037f0000000000000000000000000000000000000000000000000000000000000000168152f35b346100de5760203660031901126100de576004355f526003602052602060405f2054604051908152f35b346100de5760203660031901126100de57600435805f52600260205260405f2080546001600160a01b038160081c16156115245760078201908154916001600160401b03831642106115155760ff8360401c16611506576801000000000000000060ff9368ff0000000000000000191617905516600281101561080b576114af578061146360086009930154612eea565b500154801561149c575b611476906132d2565b7f45806e512b1f4f10e33e8b3cb64d1d11d998d8c554a95e0841fc1c701278bd5d5f80a2005b506114766114a86131f1565b905061146d565b50805f52600360205260405f20545f5b8181106114cd575050611476565b600190835f5260036020526114ff60026114ea8360405f20612a95565b506114f785820154612eea565b500154612eea565b50016114bf565b63d02e774d60e01b5f5260045ffd5b63085de62560e01b5f5260045ffd5b6307145c5f60e11b5f5260045ffd5b346100de5760a03660031901126100de576004356064356001600160401b0381116100de57611566903690600401612982565b91906084356001600160401b0381116100de57611587903690600401612982565b91835f52600260205260405f20946001600160a01b03865460081c168015611524576001600160401b03600788015416421015611506573314611ca757845f52600460205260405f206001600160a01b0333165f5260205260ff60405f205416611c9857611602916115fa913691612b8b565b602435612ced565b9160ff855416600281101561080b57611c7b5750505f5160206133755f395f51905f5254604051639cd07acb60e01b815260016004820152906001600160a01b0316816044815f602094600560248401525af1908115610574575f91611c49575b50925b604051630c8ea59d60e21b8152336004820152306024820152907f00000000000000000000000000000000000000000000000000000000000000006001600160a01b03166020836044815f855af1928315610574575f93611c13575b506116eb906116d085612c83565b506116da87612c83565b506116e484612c83565b5083612ec3565b506116f63383612ec3565b506117013384612ec3565b5061170c3386612ec3565b5060ff815416600281101561080b57156118b0575b505f838152600360205260409081902080549151959194919060e087016001600160401b0381118882101761189c576040523387526020870185815260408801908382526060890195865260808901985f8a5260a08101935f855260c08201905f825280546801000000000000000081101561189c576117a691600182018155612a95565b9590956118895760209b8b996001600160401b03966006966001600160a01b03808a9851161673ffffffffffffffffffffffffffffffffffffffff198b5416178a555160018a0155516002890155516003880155600487019051151560ff801983541691161790555160058601555116920191166001600160401b0319825416179055815f526004865260405f206001600160a01b0333165f52865260405f20600160ff19825416179055604051938452858401527f5740235d76a98f325324a161d7e4d6c23a41a6b8a38dff3014a549a77e80c76660403394a4604051908152f35b634e487b7160e01b5f525f60045260245ffd5b634e487b7160e01b5f52604160045260245ffd5b60088101908154849085159081611c03575b8015611bf1575b60209060646001600160a01b035f5160206133755f395f51905f525416945f60405196879485936385362ee760e01b8552600485015260248401528160448401525af1918215610574575f92611bbd575b5083548691611bad575b8015611b9b575b60209060646001600160a01b035f5160206133755f395f51905f525416935f6040519586948593630d8c635960e21b8552600485015260248401528160448401525af1908115610574575f91611b69575b5083555f5160206133755f395f51905f5254604051639cd07acb60e01b815233600482015292906001600160a01b0316836044815f602094600760248401525af1928315610574575f93611b34575b5060090191825490808315611aaf575b15611aa1575b8115611a8b575b6064602092935f6001600160a01b035f5160206133755f395f51905f5254166040519687958694637702dcff60e01b86526004860152602485015260448401525af1908115610574575f91611a57575b50611a5092611a4991835554612c83565b5054612cd4565b5084611721565b90506020813d602011611a83575b81611a7260209383612aca565b810103126100de5751611a50611a38565b3d9150611a65565b602091506064611a996131f1565b9250506119e8565b50611aaa6131f1565b6119e1565b5f5160206133755f395f51905f5254604051639cd07acb60e01b81525f60048201529194506001600160a01b0316816044815f6020948160248401525af1908115610574575f91611b02575b50926119db565b90506020813d602011611b2c575b81611b1d60209383612aca565b810103126100de57518a611afb565b3d9150611b10565b9092506020813d602011611b61575b81611b5060209383612aca565b810103126100de57519160096119cb565b3d9150611b43565b90506020813d602011611b93575b81611b8460209383612aca565b810103126100de57518861197c565b3d9150611b77565b506020611ba66131a3565b905061192b565b9050611bb76131a3565b90611924565b9091506020813d602011611be9575b81611bd960209383612aca565b810103126100de5751908861191a565b3d9150611bcc565b506020611bfc6131a3565b90506118c9565b9150611c0d6131a3565b916118c2565b9092506020813d602011611c41575b81611c2f60209383612aca565b810103126100de5751916116eb6116c2565b3d9150611c22565b90506020813d602011611c73575b81611c6460209383612aca565b810103126100de575184611663565b3d9150611c57565b611c9291611c8a913691612b8b565b604435612ced565b92611666565b630697833b60e11b5f5260045ffd5b63ef02588960e01b5f5260045ffd5b60803660031901126100de576004356001600160401b0381116100de57611ce1903690600401612982565b6024356001600160401b0381116100de57611d00903690600401612982565b611d0b9291926129c5565b90606435916001600160401b0383168084036100de57603c116120df5760015494611d3586612a2f565b6001555f868152600260205260409020805474ffffffffffffffffffffffffffffffffffffffffff19163360081b74ffffffffffffffffffffffffffffffffffffffff001617815592600184016001600160401b03871161189c57611d9a8154612a3d565b601f811161209a575b50865f601f8211600114612035575f9161202a575b508760011b905f198960031b1c19161790555b60028401916001600160401b03821161189c57611de88354612a3d565b601f8111611fe5575b509160209893918895935f90601f8311600114611f4557611e9a7fc703fa7cb74dcff8c14d42740c8500e6401dc2359d3a6bfb618d05aaf4cab7f398996001600160401b03969585611ef1966006968a965f92611f3a575b50508160011b915f199060031b1c19161790555b6003880173ffffffffffffffffffffffffffffffffffffffff19815416905560016004890155600588018387168419825416179055824216612a75565b9381600788019516821986541617855534600d880155611edb611ebb6131a3565b60088901908155611a49611ecd6131f1565b9160098b0192835554612c83565b501694611ee786613125565b9182910155612c83565b5054169085604051936080855281608086015260a08501375f60a0878501015287830152604082015234606082015260a0813395601f80199101168101030190a3604051908152f35b013590505f80611e49565b5f8481528c81209994939290601f198416905b818110611fcb575094611ef1946001857fc703fa7cb74dcff8c14d42740c8500e6401dc2359d3a6bfb618d05aaf4cab7f39c9d6001600160401b039a9996611e9a966006998d9910611fb2575b505050811b019055611e5d565b01355f19600384901b60f8161c191690555f8080611fa5565b828401358c556001909b019a8d9a50918e01918e01611f58565b835f5260205f20601f840160051c81019160208510612020575b601f0160051c01905b8181106120155750611df1565b5f8155600101612008565b9091508190611fff565b90508901358a611db8565b5f8381526020812092508990601f198216905b8d82821061208057505010612067575b5050600187811b019055611dcb565b8a01355f1960038a901b60f8161c191690558980612058565b84013585556001909401936020938401938c935001612048565b815f5260205f20601f890160051c81019160208a106120d5575b601f0160051c01905b8181106120ca5750611da3565b5f81556001016120bd565b90915081906120b4565b6325c3636760e01b5f5260045ffd5b346100de575f3660031901126100de576020612108612ca5565b604051908152f35b346100de5760203660031901126100de575f61022060405161213181612aae565b828152826020820152606060408201526060808201528260808201528260a08201528260c08201528260e08201528261010082015282610120820152826101408201528261016082015282610180820152826101a0820152826101c0820152826101e08201528261020082015201526004355f52600260205260405f20604051906121bb82612aae565b80549060ff8216600281101561080b57600d926001600160a01b0391855260081c1660208401526121ee60018201612aeb565b60408401526121ff60028201612aeb565b60608401526001600160a01b036003820154166080840152600481015460a08401526001600160401b0360058201541660c0840152600681015460e084015260ff60078201546001600160401b038116610100860152818160401c16151561012086015260481c161515610140840152600881015461016084015260098101546101808401526001600160401b03600a8201546001600160a01b0381166101a086015260a01c166101c08401526001600160401b03600b820154166101e0840152600c81015461020084015201546102208201526040519060208252805190600282101561080b57829160208301526001600160a01b036020820151166040830152610220612338612322604084015161024060608701526102608601906129db565b6060840151858203601f190160808701526129db565b916001600160a01b0360808201511660a085015260a081015160c08501526001600160401b0360c08201511660e085015260e08101516101008501526001600160401b0361010082015116610120850152610120810151151561014085015261014081015115156101608501526101608101516101808501526101808101516101a08501526001600160a01b036101a0820151166101c08501526001600160401b036101c0820151166101e08501526001600160401b036101e0820151166102008501526102008101518285015201516102408301520390f35b346100de575f3660031901126100de5760206040516001600160a01b037f0000000000000000000000000000000000000000000000000000000000000000168152f35b346100de5760403660031901126100de576004355f52600360205260e061248160243560405f20612a95565b506001600160a01b03815416906001810154906002810154600382015460ff600484015416916001600160401b036006600586015495015416946040519687526020870152604086015260608501521515608084015260a083015260c0820152f35b346100de5760403660031901126100de576124fc6129af565b6004355f5260046020526001600160a01b0360405f2091165f52602052602060ff60405f2054166040519015158152f35b60c03660031901126100de576004356001600160401b0381116100de57612558903690600401612982565b906024356001600160401b0381116100de57612578903690600401612982565b9092604435916001600160a01b0383168093036100de5760643591608435916001600160401b0383168093036100de5760a435906001600160401b0382168083036100de57603c116120df57851561295957841561294a5761260a6040516323b872dd60e01b602082015233602482015230604482015286606482015260648152612604608482612aca565b876130d1565b6001549661261788612a2f565b60019081555f898152600260205260409020805474ffffffffffffffffffffffffffffffffffffffffff19163360081b74ffffffffffffffffffffffffffffffffffffffff00161790911781559360018501916001600160401b03821161189c5781906126848454612a3d565b601f81116128fa575b505f90601f8311600114612893575f92612888575b50508160011b915f199060031b1c19161790555b60028301906001600160401b03811161189c576126d38254612a3d565b98601f8a11612843575b602099505f90601f83116001146127ce579361277b938360069461275c946001600160401b0399985f926127c3575b50508160011b915f199060031b1c19161790555b600385018973ffffffffffffffffffffffffffffffffffffffff1982541617905587600486015560058501878719825416179055854216612a75565b9284600782019416851985541617845534600d820155611ee786613125565b50541690604051928352858301526040820152346060820152827f22db5fc682d02008883a8955aa2205c8a782f2f6ba9bb1df12b447a9a49a0be560803393a4604051908152f35b013590508e8061270c565b601f19831691845f528b5f20925f5b81811061282c57508461275c946001600160401b0399989461277b989460069860019510612813575b505050811b019055612720565b01355f19600384901b60f8161c191690558e8080612806565b91938d6001819287870135815501950192016127dd565b825f5260205f20601f830160051c81019a6020841061287e575b601f0160051c01995b8a811061287357506126dd565b5f8155600101612866565b909a508a9061285d565b013590508b806126a2565b909150601f19831691845f5260205f20925f5b8181106128e257509084600195949392106128c9575b505050811b0190556126b6565b01355f19600384901b60f8161c191690558b80806128bc565b919360206001819287870135815501950192016128a6565b909150835f5260205f20601f840160051c81019160208510612940575b90601f859493920160051c01905b818110612932575061268d565b5f8155849350600101612925565b9091508190612917565b631f2a200560e01b5f5260045ffd5b63d92e233d60e01b5f5260045ffd5b346100de575f3660031901126100de576020906001548152f35b9181601f840112156100de578235916001600160401b0383116100de57602083818601950101116100de57565b602435906001600160a01b03821682036100de57565b604435906001600160401b03821682036100de57565b805180835260209291819084018484015e5f828201840152601f01601f1916010190565b9181601f840112156100de578235916001600160401b0383116100de576020808501948460051b0101116100de57565b5f198114610f405760010190565b90600182811c92168015612a6b575b6020831014612a5757565b634e487b7160e01b5f52602260045260245ffd5b91607f1691612a4c565b906001600160401b03809116911601906001600160401b038211610f4057565b80548210156107ca575f52600760205f20910201905f90565b61024081019081106001600160401b0382111761189c57604052565b90601f801991011681019081106001600160401b0382111761189c57604052565b9060405191825f825492612afe84612a3d565b8084529360018116908115612b695750600114612b25575b50612b2392500383612aca565b565b90505f9291925260205f20905f915b818310612b4d575050906020612b23928201015f612b16565b6020919350806001915483858901015201910190918492612b34565b905060209250612b2394915060ff191682840152151560051b8201015f612b16565b9291926001600160401b03821161189c5760405191612bb4601f8201601f191660200184612aca565b8294818452818301116100de578281602093845f960137010152565b908160209103126100de575190565b91908203918211610f4057565b6001600160401b03811161189c5760051b60200190565b90612c0d82612bec565b612c1a6040519182612aca565b8281528092612c2b601f1991612bec565b0190602036910137565b8051156107ca5760200190565b80518210156107ca5760209160051b010190565b908160209103126100de575161ffff811681036100de5790565b81810292918115918404141715610f4057565b8015612c97575b612c94308261323f565b90565b50612ca06131a3565b612c8a565b46600103612cb257600190565b4662aa36a703612cc25761271190565b617a694614612ccf575f90565b5f1990565b8015612ce457612c94308261323f565b50612ca06131f1565b815190919015612e0557602090612d47926001600160a01b035f5160206133755f395f51905f525416905f60405180968195829463045fc19560e11b845260048401523360248401526080604484015260848301906129db565b6005606483015203925af1908115610574575f91612dd3575b506001600160a01b037f9e7b61f58c47dc699ac88507c4f5bb9f121c03808c5676a8078fe583e46497005416803b156100de57604051630f8e573b60e21b815260048101839052336024820152905f908290604490829084905af1801561057457612dc9575090565b5f612c9491612aca565b90506020813d602011612dfd575b81612dee60209383612aca565b810103126100de57515f612d60565b3d9150612de1565b508015612eba577f9e7b61f58c47dc699ac88507c4f5bb9f121c03808c5676a8078fe583e4649700546040516382027b6d60e01b81526004810183905233602482015290602090829060449082906001600160a01b03165afa908115610574575f91612e8b575b5015612e755790565b630276b5d960e01b5f526004523360245260445ffd5b612ead915060203d602011612eb3575b612ea58183612aca565b8101906132ba565b5f612e6c565b503d612e9b565b50612c946131a3565b908115612ed5575b612c94908261323f565b9050612c94612ee26131a3565b919050612ecb565b8015612efa575b612c94816132d2565b50612f036131a3565b612ef1565b60025f5414612f175760025f55565b633ee5aeb560e01b5f5260045ffd5b91908110156107ca5760051b0190565b356001600160401b03811681036100de5790565b612b23926001600160a01b036040519363a9059cbb60e01b6020860152166024840152604483015260448252612f81606483612aca565b6130d1565b90602080835192838152019201905f5b818110612fa35750505090565b8251845260209384019390920191600101612f96565b91602061303b5f926001600160a01b037f9e7b61f58c47dc699ac88507c4f5bb9f121c03808c5676a8078fe583e46497025416906040519485809481936378542ead60e01b835260606004840152613029613017606485018d612f86565b8481036003190160248601528b6129db565b838103600319016044850152906129db565b03925af1908115610574575f916130b2575b50156130a3577fc6366bab028b8d033cb362cfd1f2f3457ef4e92fc738b6788b90d5a7846367a09161309e61309092604051938493604085526040850190612f86565b9083820360208501526129db565b0390a1565b63cf6c44e960e01b5f5260045ffd5b6130cb915060203d602011612eb357612ea58183612aca565b5f61304d565b905f602091828151910182855af115610574575f513d61311c57506001600160a01b0381163b155b6131005750565b6001600160a01b0390635274afe760e01b5f521660045260245ffd5b600114156130f9565b5f5160206133755f395f51905f5254604051639cd07acb60e01b815260048101929092526001600160a01b0316816044815f602094600560248401525af1908115610574575f91613174575090565b90506020813d60201161319b575b8161318f60209383612aca565b810103126100de575190565b3d9150613182565b5f5160206133755f395f51905f5254604051639cd07acb60e01b81525f6004820152906001600160a01b0316816044815f602094600560248401525af1908115610574575f91613174575090565b5f5160206133755f395f51905f5254604051639cd07acb60e01b81525f6004820152906001600160a01b0316816044815f602094600760248401525af1908115610574575f91613174575090565b6001600160a01b037f9e7b61f58c47dc699ac88507c4f5bb9f121c03808c5676a8078fe583e4649700541691823b156100de57604051635ca4b5b160e11b815260048101929092526001600160a01b03166024820152905f908290604490829084905af18015610574576132b05750565b5f612b2391612aca565b908160209103126100de575180151581036100de5790565b60408051916132e18284612aca565b60018352601f1982013660208501376132f983612c35565b526001600160a01b037f9e7b61f58c47dc699ac88507c4f5bb9f121c03808c5676a8078fe583e46497005416803b156100de578151637d6e912360e11b815260206004820152925f918491829084908290613358906024830190612f86565b03925af190811561336b57506132b05750565b513d5f823e3d90fdfe9e7b61f58c47dc699ac88507c4f5bb9f121c03808c5676a8078fe583e4649701a2646970667358221220ac86cc593510b0b9acf39b6ba1983e080b6153a6352d8c6b3d6ede0c90d3d4fb64736f6c634300081b0033","linkReferences":{}},"methodIdentifiers":{"auctionCount()":"2ad71573","bidCount(uint256)":"b9a958b4","cUSDC()":"ce347a3e","confidentialProtocolId()":"8927b030","createAuctionItem(string,string,uint64,uint64)":"976458e2","createAuctionToken(string,string,address,uint256,uint64,uint64)":"2ce8f488","endAuction(uint256)":"b9a2de3a","finalizeAuctionItem(uint256,address,uint64,bytes)":"e6985c25","finalizeAuctionToken(uint256,uint64[],uint64[],bytes)":"d0bb54e8","getAuction(uint256)":"78bd7935","getBid(uint256,uint256)":"582c7ffd","hasBid(uint256,address)":"449e8812","nextAuctionId()":"fc528482","placeBid(uint256,bytes32,bytes32,bytes,bytes)":"b9075d02","treasury()":"61d027b3"},"gasEstimates":{"creation":{"codeDepositCost":"2651600","executionCost":"infinite","totalCost":"infinite"},"external":{"auctionCount()":"2248","bidCount(uint256)":"2541","cUSDC()":"infinite","confidentialProtocolId()":"383","createAuctionItem(string,string,uint64,uint64)":"infinite","createAuctionToken(string,string,address,uint256,uint64,uint64)":"infinite","endAuction(uint256)":"infinite","finalizeAuctionItem(uint256,address,uint64,bytes)":"infinite","finalizeAuctionToken(uint256,uint64[],uint64[],bytes)":"infinite","getAuction(uint256)":"infinite","getBid(uint256,uint256)":"17419","hasBid(uint256,address)":"2529","nextAuctionId()":"2561","placeBid(uint256,bytes32,bytes32,bytes,bytes)":"infinite","treasury()":"infinite"},"internal":{"_computeClearing(uint64[] calldata,uint64[] calldata,uint256,uint64)":"infinite","_settleAllTokenBids(uint256,uint64,uint64[] calldata,uint64[] calldata,uint256[] memory)":"infinite","_settleWinner(address,struct SilentBidAuction.Bid storage pointer,uint64,uint64,uint64,uint256,uint16)":"infinite","_verifyTokenDecryption(struct SilentBidAuction.Bid storage ref[] storage pointer,uint64[] calldata,uint64[] calldata,bytes calldata)":"infinite"}},"id":93}