{"abi":[{"type":"constructor","inputs":[],"stateMutability":"nonpayable"},{"type":"function","name":"UPGRADE_INTERFACE_VERSION","inputs":[],"outputs":[{"name":"","type":"string","internalType":"string"}],"stateMutability":"view"},{"type":"function","name":"initialize","inputs":[],"outputs":[],"stateMutability":"nonpayable"},{"type":"function","name":"proxiableUUID","inputs":[],"outputs":[{"name":"","type":"bytes32","internalType":"bytes32"}],"stateMutability":"view"},{"type":"function","name":"upgradeToAndCall","inputs":[{"name":"newImplementation","type":"address","internalType":"address"},{"name":"data","type":"bytes","internalType":"bytes"}],"outputs":[],"stateMutability":"payable"},{"type":"event","name":"Initialized","inputs":[{"name":"version","type":"uint64","indexed":false,"internalType":"uint64"}],"anonymous":false},{"type":"event","name":"Upgraded","inputs":[{"name":"implementation","type":"address","indexed":true,"internalType":"address"}],"anonymous":false},{"type":"error","name":"AddressEmptyCode","inputs":[{"name":"target","type":"address","internalType":"address"}]},{"type":"error","name":"ERC1967InvalidImplementation","inputs":[{"name":"implementation","type":"address","internalType":"address"}]},{"type":"error","name":"ERC1967NonPayable","inputs":[]},{"type":"error","name":"FailedCall","inputs":[]},{"type":"error","name":"InvalidInitialization","inputs":[]},{"type":"error","name":"NotHostOwner","inputs":[{"name":"sender","type":"address","internalType":"address"}]},{"type":"error","name":"NotInitializing","inputs":[]},{"type":"error","name":"UUPSUnauthorizedCallContext","inputs":[]},{"type":"error","name":"UUPSUnsupportedProxiableUUID","inputs":[{"name":"slot","type":"bytes32","internalType":"bytes32"}]}],"bytecode":{"object":"0x60a080604052346100c257306080525f5160206107b65f395f51905f525460ff8160401c166100b3576002600160401b03196001600160401b03821601610060575b6040516106ef90816100c78239608051818181610263015261034b0152f35b6001600160401b0319166001600160401b039081175f5160206107b65f395f51905f525581527fc7f505b2f371ae2175ee4913f4499e1f2633a7b5936321eed1cdaeb6115181d290602090a15f80610041565b63f92ee8a960e01b5f5260045ffd5b5f80fdfe60806040526004361015610011575f80fd5b5f3560e01c80634f1ef286146102c257806352d1902d146102495780638129fc1c146100bf5763ad3cb1cc14610045575f80fd5b346100bb575f3660031901126100bb576040805190610064818361060d565b6005825260208201917f352e302e3000000000000000000000000000000000000000000000000000000083528151928391602083525180918160208501528484015e5f828201840152601f01601f19168101030190f35b5f80fd5b346100bb575f3660031901126100bb577ff0c57e16840df040f15088dc2f81fe391c3923bec73e23a9662efc9c229c6a005460ff8160401c16159067ffffffffffffffff811680159081610241575b6001149081610237575b15908161022e575b5061021f5767ffffffffffffffff1981166001177ff0c57e16840df040f15088dc2f81fe391c3923bec73e23a9662efc9c229c6a0055816101e0575b5061016357005b68ff0000000000000000197ff0c57e16840df040f15088dc2f81fe391c3923bec73e23a9662efc9c229c6a0054167ff0c57e16840df040f15088dc2f81fe391c3923bec73e23a9662efc9c229c6a00557fc7f505b2f371ae2175ee4913f4499e1f2633a7b5936321eed1cdaeb6115181d2602060405160018152a1005b68ffffffffffffffffff191668010000000000000001177ff0c57e16840df040f15088dc2f81fe391c3923bec73e23a9662efc9c229c6a00558161015c565b63f92ee8a960e01b5f5260045ffd5b90501583610120565b303b159150610118565b83915061010e565b346100bb575f3660031901126100bb576001600160a01b037f00000000000000000000000000000000000000000000000000000000000000001630036102b35760206040517f360894a13ba1a3210667c828492db98dca3e2076cc3735a920a3ca505d382bbc8152f35b63703e46dd60e11b5f5260045ffd5b60403660031901126100bb576004356001600160a01b038116908181036100bb576024359067ffffffffffffffff82116100bb57366023830112156100bb5781600401359161031083610643565b9261031e604051948561060d565b808452602084019136602483830101116100bb57815f926024602093018537850101526001600160a01b037f0000000000000000000000000000000000000000000000000000000000000000168030149081156105d8575b506102b357604051638da5cb5b60e01b81526020816004817350157cffd6bbfa2dece204a89ec419c23ef5755d5afa80156105cd575f90610584575b6001600160a01b039150163303610571576040516352d1902d60e01b8152602081600481885afa5f918161053d575b506103f95784634c9c8ce360e01b5f5260045260245ffd5b807f360894a13ba1a3210667c828492db98dca3e2076cc3735a920a3ca505d382bbc86920361052b5750823b1561051957807fffffffffffffffffffffffff00000000000000000000000000000000000000007f360894a13ba1a3210667c828492db98dca3e2076cc3735a920a3ca505d382bbc5416177f360894a13ba1a3210667c828492db98dca3e2076cc3735a920a3ca505d382bbc557fbc7cd75a20ee27fd9adebab32041f755214dbc6bffa90cc0225b39da2e5c2d3b5f80a2825115610500575f80916104f6945190845af43d156104f8573d916104da83610643565b926104e8604051948561060d565b83523d5f602085013e61065f565b005b60609161065f565b5050503461050a57005b63b398979f60e01b5f5260045ffd5b634c9c8ce360e01b5f5260045260245ffd5b632a87526960e21b5f5260045260245ffd5b9091506020813d602011610569575b816105596020938361060d565b810103126100bb575190866103e1565b3d915061054c565b63021bfda160e41b5f523360045260245ffd5b506020813d6020116105c5575b8161059e6020938361060d565b810103126100bb57516001600160a01b03811681036100bb576001600160a01b03906103b2565b3d9150610591565b6040513d5f823e3d90fd5b90506001600160a01b037f360894a13ba1a3210667c828492db98dca3e2076cc3735a920a3ca505d382bbc5416141585610376565b90601f8019910116810190811067ffffffffffffffff82111761062f57604052565b634e487b7160e01b5f52604160045260245ffd5b67ffffffffffffffff811161062f57601f01601f191660200190565b90610683575080511561067457805190602001fd5b63d6bda27560e01b5f5260045ffd5b815115806106b0575b610694575090565b6001600160a01b0390639996b31560e01b5f521660045260245ffd5b50803b1561068c56fea2646970667358221220283f6c45542a2f8bbec791c0e0a3ec04c640a3c62499b4de8c54a96783b29dfc64736f6c634300081b0033f0c57e16840df040f15088dc2f81fe391c3923bec73e23a9662efc9c229c6a00","linkReferences":{}},"methodIdentifiers":{"UPGRADE_INTERFACE_VERSION()":"ad3cb1cc","initialize()":"8129fc1c","proxiableUUID()":"52d1902d","upgradeToAndCall(address,bytes)":"4f1ef286"},"gasEstimates":{"creation":{"codeDepositCost":"355000","executionCost":"infinite","totalCost":"infinite"},"external":{"UPGRADE_INTERFACE_VERSION()":"457","initialize()":"74588","proxiableUUID()":"infinite","upgradeToAndCall(address,bytes)":"infinite"},"internal":{"_authorizeUpgrade(address)":"infinite"}},"id":32}