{"abi":[{"type":"constructor","inputs":[],"stateMutability":"nonpayable"},{"type":"function","name":"EIP712_INPUT_VERIFICATION_TYPE","inputs":[],"outputs":[{"name":"","type":"string","internalType":"string"}],"stateMutability":"view"},{"type":"function","name":"EIP712_INPUT_VERIFICATION_TYPEHASH","inputs":[],"outputs":[{"name":"","type":"bytes32","internalType":"bytes32"}],"stateMutability":"view"},{"type":"function","name":"UPGRADE_INTERFACE_VERSION","inputs":[],"outputs":[{"name":"","type":"string","internalType":"string"}],"stateMutability":"view"},{"type":"function","name":"cleanTransientStorage","inputs":[],"outputs":[],"stateMutability":"nonpayable"},{"type":"function","name":"defineNewContext","inputs":[{"name":"newSignersSet","type":"address[]","internalType":"address[]"},{"name":"newThreshold","type":"uint256","internalType":"uint256"}],"outputs":[],"stateMutability":"nonpayable"},{"type":"function","name":"eip712Domain","inputs":[],"outputs":[{"name":"fields","type":"bytes1","internalType":"bytes1"},{"name":"name","type":"string","internalType":"string"},{"name":"version","type":"string","internalType":"string"},{"name":"chainId","type":"uint256","internalType":"uint256"},{"name":"verifyingContract","type":"address","internalType":"address"},{"name":"salt","type":"bytes32","internalType":"bytes32"},{"name":"extensions","type":"uint256[]","internalType":"uint256[]"}],"stateMutability":"view"},{"type":"function","name":"getCoprocessorSigners","inputs":[],"outputs":[{"name":"","type":"address[]","internalType":"address[]"}],"stateMutability":"view"},{"type":"function","name":"getHandleVersion","inputs":[],"outputs":[{"name":"","type":"uint8","internalType":"uint8"}],"stateMutability":"pure"},{"type":"function","name":"getThreshold","inputs":[],"outputs":[{"name":"","type":"uint256","internalType":"uint256"}],"stateMutability":"view"},{"type":"function","name":"getVersion","inputs":[],"outputs":[{"name":"","type":"string","internalType":"string"}],"stateMutability":"pure"},{"type":"function","name":"initializeFromEmptyProxy","inputs":[{"name":"verifyingContractSource","type":"address","internalType":"address"},{"name":"chainIDSource","type":"uint64","internalType":"uint64"},{"name":"initialSigners","type":"address[]","internalType":"address[]"},{"name":"initialThreshold","type":"uint256","internalType":"uint256"}],"outputs":[],"stateMutability":"nonpayable"},{"type":"function","name":"isSigner","inputs":[{"name":"account","type":"address","internalType":"address"}],"outputs":[{"name":"","type":"bool","internalType":"bool"}],"stateMutability":"view"},{"type":"function","name":"proxiableUUID","inputs":[],"outputs":[{"name":"","type":"bytes32","internalType":"bytes32"}],"stateMutability":"view"},{"type":"function","name":"reinitializeV2","inputs":[{"name":"newSignersSet","type":"address[]","internalType":"address[]"},{"name":"threshold","type":"uint256","internalType":"uint256"}],"outputs":[],"stateMutability":"nonpayable"},{"type":"function","name":"setThreshold","inputs":[{"name":"threshold","type":"uint256","internalType":"uint256"}],"outputs":[],"stateMutability":"nonpayable"},{"type":"function","name":"upgradeToAndCall","inputs":[{"name":"newImplementation","type":"address","internalType":"address"},{"name":"data","type":"bytes","internalType":"bytes"}],"outputs":[],"stateMutability":"payable"},{"type":"function","name":"verifyInput","inputs":[{"name":"context","type":"tuple","internalType":"struct FHEVMExecutor.ContextUserInputs","components":[{"name":"userAddress","type":"address","internalType":"address"},{"name":"contractAddress","type":"address","internalType":"address"}]},{"name":"inputHandle","type":"bytes32","internalType":"bytes32"},{"name":"inputProof","type":"bytes","internalType":"bytes"}],"outputs":[{"name":"","type":"bytes32","internalType":"bytes32"}],"stateMutability":"nonpayable"},{"type":"event","name":"EIP712DomainChanged","inputs":[],"anonymous":false},{"type":"event","name":"Initialized","inputs":[{"name":"version","type":"uint64","indexed":false,"internalType":"uint64"}],"anonymous":false},{"type":"event","name":"NewContextSet","inputs":[{"name":"newSignersSet","type":"address[]","indexed":false,"internalType":"address[]"},{"name":"newThreshold","type":"uint256","indexed":false,"internalType":"uint256"}],"anonymous":false},{"type":"event","name":"Upgraded","inputs":[{"name":"implementation","type":"address","indexed":true,"internalType":"address"}],"anonymous":false},{"type":"error","name":"AddressEmptyCode","inputs":[{"name":"target","type":"address","internalType":"address"}]},{"type":"error","name":"CoprocessorAlreadySigner","inputs":[]},{"type":"error","name":"CoprocessorSignerNull","inputs":[]},{"type":"error","name":"DeserializingInputProofFail","inputs":[]},{"type":"error","name":"ECDSAInvalidSignature","inputs":[]},{"type":"error","name":"ECDSAInvalidSignatureLength","inputs":[{"name":"length","type":"uint256","internalType":"uint256"}]},{"type":"error","name":"ECDSAInvalidSignatureS","inputs":[{"name":"s","type":"bytes32","internalType":"bytes32"}]},{"type":"error","name":"ERC1967InvalidImplementation","inputs":[{"name":"implementation","type":"address","internalType":"address"}]},{"type":"error","name":"ERC1967NonPayable","inputs":[]},{"type":"error","name":"EmptyInputProof","inputs":[]},{"type":"error","name":"FailedCall","inputs":[]},{"type":"error","name":"InvalidChainId","inputs":[]},{"type":"error","name":"InvalidHandleVersion","inputs":[]},{"type":"error","name":"InvalidIndex","inputs":[]},{"type":"error","name":"InvalidInitialization","inputs":[]},{"type":"error","name":"InvalidInputHandle","inputs":[]},{"type":"error","name":"InvalidSigner","inputs":[{"name":"signerRecovered","type":"address","internalType":"address"}]},{"type":"error","name":"NotASigner","inputs":[]},{"type":"error","name":"NotHostOwner","inputs":[{"name":"sender","type":"address","internalType":"address"}]},{"type":"error","name":"NotInitializing","inputs":[]},{"type":"error","name":"NotInitializingFromEmptyProxy","inputs":[]},{"type":"error","name":"SignatureThresholdNotReached","inputs":[{"name":"numSignatures","type":"uint256","internalType":"uint256"}]},{"type":"error","name":"SignaturesVerificationFailed","inputs":[]},{"type":"error","name":"SignersSetIsEmpty","inputs":[]},{"type":"error","name":"ThresholdIsAboveNumberOfSigners","inputs":[]},{"type":"error","name":"ThresholdIsNull","inputs":[]},{"type":"error","name":"UUPSUnauthorizedCallContext","inputs":[]},{"type":"error","name":"UUPSUnsupportedProxiableUUID","inputs":[{"name":"slot","type":"bytes32","internalType":"bytes32"}]},{"type":"error","name":"ZeroSignature","inputs":[]}],"bytecode":{"object":"0x60a080604052346100c257306080525f516020612a3c5f395f51905f525460ff8160401c166100b3576002600160401b03196001600160401b03821601610060575b60405161297590816100c7823960805181818161036801526104900152f35b6001600160401b0319166001600160401b039081175f516020612a3c5f395f51905f525581527fc7f505b2f371ae2175ee4913f4499e1f2633a7b5936321eed1cdaeb6115181d290602090a15f80610041565b63f92ee8a960e01b5f5260045ffd5b5f80fdfe60806040526004361015610011575f80fd5b5f3560e01c80630d8e6e2c1461012457806335334c231461011f5780634f1ef2861461011a57806352d1902d1461011557806354130ccd146101105780635eed76751461010b5780637a297f4b146101065780637df73e271461010157806384b0196e146100fc5780638b218123146100f75780639164d0ae146100f2578063960bfe04146100ed578063ad3cb1cc146100e8578063da53c47d146100e3578063e6317df5146100de578063e75235b8146100d95763e7d9e407146100d4575f80fd5b610bd1565b610b95565b610b10565b610a92565b610982565b6108fe565b6108c0565b61085c565b610740565b61065b565b610641565b6105bc565b61058d565b610476565b610326565b610228565b610161565b805180835260209291819084018484015e5f828201840152601f01601f1916010190565b90602061015e928181520190610129565b90565b34610224575f366003190112610224576102206101e96102146040516101886040826102a2565b600d81527f496e70757456657269666965720000000000000000000000000000000000000060208201526102066101bd611bdf565b60016101f86101ca611c32565b826101f86101d6611bdf565b9560026040519b8c9a60208c0190610cf4565b61103b60f11b81520190610cf4565b601760f91b81520190610cf4565b03601f1981018352826102a2565b6040519182918261014d565b0390f35b5f80fd5b34610224575f3660031901126102245760015f5c5f805d0160015b81811061024c57005b805f6001925c81835d5d01610243565b6001600160a01b0381160361022457565b634e487b7160e01b5f52604160045260245ffd5b6040810190811067ffffffffffffffff82111761029d57604052565b61026d565b90601f8019910116810190811067ffffffffffffffff82111761029d57604052565b67ffffffffffffffff811161029d57601f01601f191660200190565b81601f82011215610224578035906102f7826102c4565b9261030560405194856102a2565b8284526020838301011161022457815f926020809301838601378301015290565b60403660031901126102245760043561033e8161025c565b60243567ffffffffffffffff81116102245761035e9036906004016102e0565b6001600160a01b037f000000000000000000000000000000000000000000000000000000000000000016803014908115610441575b5061043257604051638da5cb5b60e01b81526020816004817350157cffd6bbfa2dece204a89ec419c23ef5755d5afa801561042d576001600160a01b03915f916103fe575b501633036103eb576103e991611c3e565b005b63021bfda160e41b5f523360045260245ffd5b610420915060203d602011610426575b61041881836102a2565b810190611237565b5f6103d8565b503d61040e565b61124c565b63703e46dd60e11b5f5260045ffd5b90506001600160a01b037f360894a13ba1a3210667c828492db98dca3e2076cc3735a920a3ca505d382bbc541614155f610393565b34610224575f366003190112610224576001600160a01b037f00000000000000000000000000000000000000000000000000000000000000001630036104325760206040517f360894a13ba1a3210667c828492db98dca3e2076cc3735a920a3ca505d382bbc8152f35b604051906104ef60a0836102a2565b607f82527f6f6e7472616374436861696e49642c62797465732065787472614461746129006080837f43697068657274657874566572696669636174696f6e28627974657333325b5d60208201527f20637448616e646c65732c616464726573732075736572416464726573732c6160408201527f64647265737320636f6e7472616374416464726573732c75696e74323536206360608201520152565b34610224575f366003190112610224576102206105a86104e0565b604051918291602083526020830190610129565b34610224576080366003190112610224576004356105d98161025c565b6024359067ffffffffffffffff82168203610224576044359067ffffffffffffffff821161022457366023830112156102245781600401359067ffffffffffffffff8211610224573660248360051b85010111610224576103e9936024606435940191610d06565b34610224575f3660031901126102245760206040515f8152f35b34610224576020366003190112610224576001600160a01b036004356106808161025c565b165f527f3f7d7a96c8c7024e92d37afccfc9b87773a33b9bc22e23134b683e74a50ace00602052602060ff60405f2054166040519015158152f35b9293906001600160a01b03926106e66106f492600f60f81b875260e0602088015260e0870190610129565b908582036040870152610129565b9360608401521660808201525f60a082015260c0818303910152602080835192838152019201905f5b81811061072a5750505090565b825184526020938401939092019160010161071d565b34610224575f366003190112610224577fe910845fd818f61127c84f3586776436a37dead33625056c65162537e3373600541580610833575b156107ee5767ffffffffffffffff61078f611d3d565b61022061079a611e30565b7fe910845fd818f61127c84f3586776436a37dead33625056c65162537e33736045467ffffffffffffffff60a082901c1693906001600160a01b0316906107df611159565b926040519687961691866106bb565b60405162461bcd60e51b815260206004820152601560248201527f4549503731323a20556e696e697469616c697a656400000000000000000000006044820152606490fd5b507fe910845fd818f61127c84f3586776436a37dead33625056c65162537e33736015415610779565b34610224575f3660031901126102245760206108766104e0565b818151910120604051908152f35b90602080835192838152019201905f5b8181106108a15750505090565b82516001600160a01b0316845260209384019390920191600101610894565b34610224575f366003190112610224576102206040516108ea816108e381611174565b03826102a2565b604051918291602083526020830190610884565b3461022457602036600319011261022457600435604051638da5cb5b60e01b81526020816004817350157cffd6bbfa2dece204a89ec419c23ef5755d5afa801561042d576001600160a01b03915f91610963575b501633036103eb576103e990611257565b61097c915060203d6020116104265761041881836102a2565b5f610952565b34610224575f366003190112610224576102206040516109a36040826102a2565b600581527f352e302e300000000000000000000000000000000000000000000000000000006020820152604051918291602083526020830190610129565b67ffffffffffffffff811161029d5760051b60200190565b929190610a05816109e1565b93610a1360405195866102a2565b602085838152019160051b810192831161022457905b828210610a3557505050565b602080918335610a448161025c565b815201910190610a29565b6040600319820112610224576004359067ffffffffffffffff8211610224578060238301121561022457816024610a8b936004013591016109f9565b9060243590565b3461022457610aa036610a4f565b604051638da5cb5b60e01b81526020816004817350157cffd6bbfa2dece204a89ec419c23ef5755d5afa801561042d576001600160a01b03915f91610af1575b501633036103eb576103e991611461565b610b0a915060203d6020116104265761041881836102a2565b5f610ae0565b34610224573660031901608081126102245760401361022457604051610b3581610281565b600435610b418161025c565b8152602435610b4f8161025c565b602082015260643567ffffffffffffffff81116102245761022091610b7b610b859236906004016102e0565b9060443590611828565b6040519081529081906020820190565b34610224575f3660031901126102245760207f3f7d7a96c8c7024e92d37afccfc9b87773a33b9bc22e23134b683e74a50ace0254604051908152f35b3461022457610bdf36610a4f565b5f5160206129205f395f51905f525460ff8160401c16908115610cde575b50610ccf57610c7191610c37600367ffffffffffffffff195f5160206129205f395f51905f525416175f5160206129205f395f51905f5255565b6801000000000000000068ff0000000000000000195f5160206129205f395f51905f525416175f5160206129205f395f51905f52556112a2565b610ca068ff0000000000000000195f5160206129205f395f51905f5254165f5160206129205f395f51905f5255565b604051600381527fc7f505b2f371ae2175ee4913f4499e1f2633a7b5936321eed1cdaeb6115181d290602090a1005b63f92ee8a960e01b5f5260045ffd5b6003915067ffffffffffffffff1610155f610bfd565b805191908290602001825e015f815290565b939291905f5160206129205f395f51905f525467ffffffffffffffff81169060018203610e1e5760401c60ff16908115610e12575b50610ccf57610daf94610d75600367ffffffffffffffff195f5160206129205f395f51905f525416175f5160206129205f395f51905f5255565b6801000000000000000068ff0000000000000000195f5160206129205f395f51905f525416175f5160206129205f395f51905f5255610e2d565b610dde68ff0000000000000000195f5160206129205f395f51905f5254165f5160206129205f395f51905f5255565b604051600381527fc7f505b2f371ae2175ee4913f4499e1f2633a7b5936321eed1cdaeb6115181d29080602081015b0390a1565b6003915010155f610d3b565b636f4f731f60e01b5f5260045ffd5b94939290604090610ef2825197610e44848a6102a2565b601189527f496e707574566572696669636174696f6e00000000000000000000000000000060208a0152610e7a845194856102a2565b60018452603160f81b6020850152610e9061217d565b610e9861217d565b6001600160a01b03166001600160a01b03197fe910845fd818f61127c84f3586776436a37dead33625056c65162537e33736045416177fe910845fd818f61127c84f3586776436a37dead33625056c65162537e337360455565b7fffffffff0000000000000000ffffffffffffffffffffffffffffffffffffffff7bffffffffffffffff00000000000000000000000000000000000000007fe910845fd818f61127c84f3586776436a37dead33625056c65162537e3373604549260a01b169116177fe910845fd818f61127c84f3586776436a37dead33625056c65162537e337360455855167ffffffffffffffff811161029d57610fc081610fbb7fe910845fd818f61127c84f3586776436a37dead33625056c65162537e337360254611d05565b6121a8565b6020601f821160011461108c5791610ffc826110239361107a97969561107f9a9b5f92611081575b50508160011b915f199060031b1c19161790565b7fe910845fd818f61127c84f3586776436a37dead33625056c65162537e337360255612266565b61104b5f7fe910845fd818f61127c84f3586776436a37dead33625056c65162537e337360055565b6110735f7fe910845fd818f61127c84f3586776436a37dead33625056c65162537e337360155565b36916109f9565b6112a2565b565b015190505f80610fe8565b7fe910845fd818f61127c84f3586776436a37dead33625056c65162537e33736025f52601f198216977f7c28feee60e4da326c26903a4f8a719e40f5a1223c1ca127f4c51f0ef2891454985f5b81811061114157509261107f989961107a97969593600193836110239710611129575b505050811b017fe910845fd818f61127c84f3586776436a37dead33625056c65162537e337360255612266565b01515f1960f88460031b161c191690555f80806110fc565b838301518b556001909a0199602093840193016110d9565b604051906111686020836102a2565b5f808352366020840137565b60205f5160206129005f395f51905f52549182815201905f5160206129005f395f51905f525f5260205f20905f5b8181106111af5750505090565b82546001600160a01b03168452602090930192600192830192016111a2565b604051905f5160206129005f395f51905f525480835282602081015f5160206129005f395f51905f525f5260205f20925f5b81811061121557505061107f925003836102a2565b84546001600160a01b0316835260019485019487945060209093019201611200565b90816020910312610224575161015e8161025c565b6040513d5f823e3d90fd5b7f1dcd7e1de916ad3be0c1097968029899e2e7d0195cfa6967e16520c0e8d07cea9061128281611f03565b60405180916040825261129760408301611174565b9060208301520390a1565b90604051638da5cb5b60e01b81526020816004817350157cffd6bbfa2dece204a89ec419c23ef5755d5afa801561042d576001600160a01b03915f916112f4575b501633036103eb5761107f91611461565b61130d915060203d6020116104265761041881836102a2565b5f6112e3565b634e487b7160e01b5f52603260045260245ffd5b805182101561133b5760209160051b010190565b611313565b5f5160206129005f395f51905f525480156113b7575f198101905f5160206129005f395f51905f525482101561133b575f5160206129005f395f51905f525f8190527fa19d1e433dfecc0beffcdd4bfc8641ce182522953821b06cf0a3ca14a88d878890910180546001600160a01b031916905555565b634e487b7160e01b5f52603160045260245ffd5b5f5160206129005f395f51905f52546801000000000000000081101561029d57600181015f5160206129005f395f51905f52555f5160206129005f395f51905f525481101561133b576001600160a01b03905f5160206129005f395f51905f525f5260205f200191166001600160a01b0319825416179055565b92919061145c602091604086526040860190610884565b930152565b80518015611615576114716111ce565b8051905f5b8281106115b1575050505f5b8181106114c6575050907f1dcd7e1de916ad3be0c1097968029899e2e7d0195cfa6967e16520c0e8d07cea916114b782611f03565b610e0d60405192839283611445565b6114e06114d38285611327565b516001600160a01b031690565b906001600160a01b038216156115a25761153461152d836001600160a01b03165f527f3f7d7a96c8c7024e92d37afccfc9b87773a33b9bc22e23134b683e74a50ace0060205260405f2090565b5460ff1690565b6115935761158d8261158861157b6001956001600160a01b03165f527f3f7d7a96c8c7024e92d37afccfc9b87773a33b9bc22e23134b683e74a50ace0060205260405f2090565b805460ff19166001179055565b6113cb565b01611482565b63572de7c960e11b5f5260045ffd5b6304069ca760e21b5f5260045ffd5b806116076115fd6115c76114d360019587611327565b6001600160a01b03165f527f3f7d7a96c8c7024e92d37afccfc9b87773a33b9bc22e23134b683e74a50ace0060205260405f2090565b805460ff19169055565b61160f611340565b01611476565b631286e95160e01b5f5260045ffd5b80511561133b5760200190565b80516001101561133b5760210190565b90815181101561133b570160200190565b634e487b7160e01b5f52601160045260245ffd5b908160051b918083046020149015171561167c57565b611652565b908160031b917f1fffffffffffffffffffffffffffffffffffffffffffffffffffffffffffffff81160361167c57565b908160051b917f07ffffffffffffffffffffffffffffffffffffffffffffffffffffffffffffff81160361167c57565b908160410291604183040361167c57565b600201908160021161167c57565b9190820180921161167c57565b601f0390601f821161167c57565b9190820391821161167c57565b90611732826109e1565b61173f60405191826102a2565b8281528092611750601f19916109e1565b0190602036910137565b90611764826109e1565b61177160405191826102a2565b8281528092611782601f19916109e1565b01905f5b82811061179257505050565b806060602080938501015201611786565b604051608091906117b483826102a2565b6041815291601f1901366020840137565b906117cf826102c4565b6117dc60405191826102a2565b8281528092611750601f19916102c4565b6040519060a0820182811067ffffffffffffffff82111761029d5760405260606080838281525f60208201525f60408201525f838201520152565b929161183b84516001600160a01b031690565b61185b602086019161185483516001600160a01b031690565b9084611f60565b909261188361187669ffffffffffffffffffff871660101c90565b67ffffffffffffffff1690565b67ffffffffffffffff46911603611bd0576118ab6aff00000000000000000000861660501c90565b93611b3e578051968715611b2f576118fd6118f76118f16118cb85611624565b517fff000000000000000000000000000000000000000000000000000000000000001690565b60f81c90565b60ff1690565b916119106118f76118f16118cb84611631565b94868411801590611b25575b611b165761194361193461192f866116b1565b6116f2565b61193d886116e1565b90611700565b809a10611b075761195384611728565b955f5b858110611ad157506119678161175a565b945f5b828110611a51575050506119aa6119ba916114d361199a6119896117ed565b968a8852516001600160a01b031690565b6001600160a01b03166020870152565b6001600160a01b03166040840152565b4660608301526119cb89825161171b565b906119d5826117c5565b90608084019182525f5b838110611a215750505050611a0995969750611a0492916119ff91611fb2565b6120a0565b611327565b518103611a135790565b624b1bf160e31b5f5260045ffd5b80611a3b6118cb611a358f94600195611700565b85611641565b611a4a828651925f1a92611641565b53016119df565b611a596117a3565b611a638289611327565b52611a6e8188611327565b505f5b60418110611a82575060010161196a565b80611ab26118cb611aac600194611aa7611a9e61192f8a6116b1565b61193d896116e1565b611700565b89611641565b611aca82611ac0868d611327565b51925f1a92611641565b5301611a71565b60228160051b850101519060ff8216611af857600191611af1828b611327565b5201611956565b6317df86d560e21b5f5260045ffd5b631817ecd760e01b5f5260045ffd5b6363df817160e01b5f5260045ffd5b5060fe871161191c565b6359240e8b60e11b5f5260045ffd5b9394955050508060ff611b566118f16118cb86611624565b1611801590611bc6575b611b165782915f915f915b60208310611b7e5750505003611a135790565b91935091600190611ba76118f76118f16118cb611ba189611aa761192f8b611666565b87611641565b611bb8611bb38761170d565b611681565b1b1793019091849392611b6b565b5060fe8111611b60565b633d23e4d160e11b5f5260045ffd5b5f611bea60016117c5565b90600a602183015b5f1901917f30313233343536373839616263646566000000000000000000000000000000008282061a8353048015611c2d57600a9091611bf2565b505090565b6002611bea60016117c5565b6040516352d1902d60e01b81529290916020846004816001600160a01b0387165afa5f9481611cd1575b50611c8957634c9c8ce360e01b5f526001600160a01b03831660045260245ffd5b90917f360894a13ba1a3210667c828492db98dca3e2076cc3735a920a3ca505d382bbc8403611cbd5761107f9293506120b0565b632a87526960e21b5f52600484905260245ffd5b9094506020813d602011611cfd575b81611ced602093836102a2565b810103126102245751935f611c68565b3d9150611ce0565b90600182811c92168015611d33575b6020831014611d1f57565b634e487b7160e01b5f52602260045260245ffd5b91607f1691611d14565b604051905f827fe910845fd818f61127c84f3586776436a37dead33625056c65162537e33736025491611d6f83611d05565b8083529260018116908115611e115750600114611d93575b61107f925003836102a2565b507fe910845fd818f61127c84f3586776436a37dead33625056c65162537e33736025f90815290917f7c28feee60e4da326c26903a4f8a719e40f5a1223c1ca127f4c51f0ef28914545b818310611df557505090602061107f92820101611d87565b6020919350806001915483858901015201910190918492611ddd565b6020925061107f94915060ff191682840152151560051b820101611d87565b604051905f827fe910845fd818f61127c84f3586776436a37dead33625056c65162537e33736035491611e6283611d05565b8083529260018116908115611e115750600114611e855761107f925003836102a2565b507fe910845fd818f61127c84f3586776436a37dead33625056c65162537e33736035f90815290917f0a2c3f59fcdd313abfb988a349b11378f5de0916e0010e1141adc7f546d07f185b818310611ee757505090602061107f92820101611d87565b6020919350806001915483858901015201910190918492611ecf565b8015611f51575f5160206129005f395f51905f52548111611f42577f3f7d7a96c8c7024e92d37afccfc9b87773a33b9bc22e23134b683e74a50ace0255565b6335194e6360e01b5f5260045ffd5b630151f13160e71b5f5260045ffd5b90611faa9061020660405193849260208401966bffffffffffffffffffffffff199060601b1687526bffffffffffffffffffffffff199060601b1660348401526048830190610cf4565b519020805c91565b61208b9161208261208792611fc56104e0565b602081519101209061207a8151604051611fe7816102066020820180956123d9565b51902061020661200160208501516001600160a01b031690565b9361201660408201516001600160a01b031690565b906080606082015191015160405161203681610206602082018095610cf4565b5190209160405196879560208701998a92936001600160a01b0360a09581939998979460c087019a8752602087015216604085015216606083015260808201520152565b5190206125a4565b612414565b1590565b61209157565b634b506ccd60e01b5f5260045ffd5b6001815d60015f5c0190815d5f5d565b90813b15612161576001600160a01b038216806001600160a01b03197f360894a13ba1a3210667c828492db98dca3e2076cc3735a920a3ca505d382bbc5416177f360894a13ba1a3210667c828492db98dca3e2076cc3735a920a3ca505d382bbc557fbc7cd75a20ee27fd9adebab32041f755214dbc6bffa90cc0225b39da2e5c2d3b5f80a28051156121495761214691612560565b50565b50503461215257565b63b398979f60e01b5f5260045ffd5b6001600160a01b0382634c9c8ce360e01b5f521660045260245ffd5b60ff5f5160206129205f395f51905f525460401c161561219957565b631afcd79f60e31b5f5260045ffd5b601f81116121b4575050565b7fe910845fd818f61127c84f3586776436a37dead33625056c65162537e33736025f5260205f20906020601f840160051c8301931061220d575b601f0160051c01905b818110612202575050565b5f81556001016121f7565b90915081906121ee565b601f821161222457505050565b5f5260205f20906020601f840160051c8301931061225c575b601f0160051c01905b818110612251575050565b5f8155600101612246565b909150819061223d565b90815167ffffffffffffffff811161029d576122cc816122a67fe910845fd818f61127c84f3586776436a37dead33625056c65162537e337360354611d05565b7fe910845fd818f61127c84f3586776436a37dead33625056c65162537e3373603612217565b602092601f821160011461231f576122fb929382915f926110815750508160011b915f199060031b1c19161790565b7fe910845fd818f61127c84f3586776436a37dead33625056c65162537e337360355565b7fe910845fd818f61127c84f3586776436a37dead33625056c65162537e33736035f52601f198216937f0a2c3f59fcdd313abfb988a349b11378f5de0916e0010e1141adc7f546d07f18915f5b8681106123c157508360019596106123a9575b505050811b017fe910845fd818f61127c84f3586776436a37dead33625056c65162537e337360355565b01515f1960f88460031b161c191690555f808061237f565b9192602060018192868501518155019401920161236c565b80516020909101905f5b8181106123f05750505090565b82518452602093840193909201916001016123e3565b5f19811461167c5760010190565b908051918215612551577f3f7d7a96c8c7024e92d37afccfc9b87773a33b9bc22e23134b683e74a50ace025480841061253d5761245084611728565b915f935f5b86811061246e575050505061246a925061265d565b5f90565b61248261247b8284611327565b51846126e4565b6124c261208761152d836001600160a01b03165f527f3f7d7a96c8c7024e92d37afccfc9b87773a33b9bc22e23134b683e74a50ace0060205260405f2090565b61252257805c156124f2575b50838610156124df57600101612455565b505050506124ed925061265d565b600190565b9561251a81612515896125076001958b611327565b906001600160a01b03169052565b612406565b965d5f6124ce565b63bf18af4360e01b5f526001600160a01b031660045260245ffd5b632e57ff8360e21b5f52600484905260245ffd5b635985192160e11b5f5260045ffd5b5f8061015e93602081519101845af43d1561259c573d91612580836102c4565b9261258e60405194856102a2565b83523d5f602085013e61268a565b60609161268a565b6042906125af6127ce565b6125b7612838565b6001600160a01b037fe910845fd818f61127c84f3586776436a37dead33625056c65162537e3373604546040519260208401947f8b73c3c69bb8fe3d512ecc4cf759cc79239f7b179b0ffacaa9a75d522b39400f86526040850152606084015267ffffffffffffffff8160a01c1660808401521660a082015260a0815261263f60c0826102a2565b519020906040519161190160f01b8352600283015260228201522090565b5f5b82811061266b57505050565b805f6001600160a01b0361268160019486611327565b51165d0161265f565b906126ae575080511561269f57805190602001fd5b63d6bda27560e01b5f5260045ffd5b815115806126db575b6126bf575090565b6001600160a01b0390639996b31560e01b5f521660045260245ffd5b50803b156126b7565b61015e916126f1916126fa565b90929192612752565b815191906041830361272a576127239250602082015190606060408401519301515f1a9061287d565b9192909190565b50505f9160029190565b6004111561273e57565b634e487b7160e01b5f52602160045260245ffd5b61275b81612734565b80612764575050565b61276d81612734565b600181036127845763f645eedf60e01b5f5260045ffd5b61278d81612734565b600281036127a8575063fce698f760e01b5f5260045260245ffd5b806127b4600392612734565b146127bc5750565b6335e2f38360e21b5f5260045260245ffd5b6127d6611d3d565b80519081156127e6576020012090565b50507fe910845fd818f61127c84f3586776436a37dead33625056c65162537e33736005480156128135790565b507fc5d2460186f7233c927e7db2dcc703c0e500b653ca82273b7bfad8045d85a47090565b612840611e30565b8051908115612850576020012090565b50507fe910845fd818f61127c84f3586776436a37dead33625056c65162537e33736015480156128135790565b91907f7fffffffffffffffffffffffffffffff5d576e7357a4501ddfe92f46681b20a084116128f4579160209360809260ff5f9560405194855216868401526040830152606082015282805260015afa1561042d575f516001600160a01b038116156128ea57905f905f90565b505f906001905f90565b5050505f916003919056fe3f7d7a96c8c7024e92d37afccfc9b87773a33b9bc22e23134b683e74a50ace01f0c57e16840df040f15088dc2f81fe391c3923bec73e23a9662efc9c229c6a00a2646970667358221220517b32135656dcb31a72f1381caa423ecd259340503e6bbbdc5056591d79d39964736f6c634300081b0033f0c57e16840df040f15088dc2f81fe391c3923bec73e23a9662efc9c229c6a00","linkReferences":{}},"methodIdentifiers":{"EIP712_INPUT_VERIFICATION_TYPE()":"54130ccd","EIP712_INPUT_VERIFICATION_TYPEHASH()":"8b218123","UPGRADE_INTERFACE_VERSION()":"ad3cb1cc","cleanTransientStorage()":"35334c23","defineNewContext(address[],uint256)":"da53c47d","eip712Domain()":"84b0196e","getCoprocessorSigners()":"9164d0ae","getHandleVersion()":"7a297f4b","getThreshold()":"e75235b8","getVersion()":"0d8e6e2c","initializeFromEmptyProxy(address,uint64,address[],uint256)":"5eed7675","isSigner(address)":"7df73e27","proxiableUUID()":"52d1902d","reinitializeV2(address[],uint256)":"e7d9e407","setThreshold(uint256)":"960bfe04","upgradeToAndCall(address,bytes)":"4f1ef286","verifyInput((address,address),bytes32,bytes)":"e6317df5"},"gasEstimates":{"creation":{"codeDepositCost":"2122600","executionCost":"infinite","totalCost":"infinite"},"external":{"EIP712_INPUT_VERIFICATION_TYPE()":"629","EIP712_INPUT_VERIFICATION_TYPEHASH()":"638","UPGRADE_INTERFACE_VERSION()":"706","cleanTransientStorage()":"infinite","defineNewContext(address[],uint256)":"infinite","eip712Domain()":"infinite","getCoprocessorSigners()":"infinite","getHandleVersion()":"288","getThreshold()":"2590","getVersion()":"infinite","initializeFromEmptyProxy(address,uint64,address[],uint256)":"infinite","isSigner(address)":"2573","proxiableUUID()":"infinite","reinitializeV2(address[],uint256)":"infinite","setThreshold(uint256)":"infinite","upgradeToAndCall(address,bytes)":"infinite","verifyInput((address,address),bytes32,bytes)":"infinite"},"internal":{"_authorizeUpgrade(address)":"infinite","_cacheProof(bytes32)":"431","_checkProofCache(bytes memory,address,address)":"infinite","_cleanTransientHashMap(address[] memory,uint256)":"infinite","_getInputVerifierStorage()":"infinite","_hashEIP712InputVerification(struct InputVerifier.CiphertextVerification memory)":"infinite","_recoverSigner(bytes32,bytes memory)":"infinite","_setThreshold(uint256)":"24285","_tload(address)":"infinite","_tstore(address,uint256)":"infinite","_verifyEIP712(struct InputVerifier.CiphertextVerification memory,bytes memory[] memory)":"infinite","_verifySignaturesDigest(bytes32,bytes memory[] memory)":"infinite"}},"id":30}