{"abi":[{"type":"function","name":"UPGRADE_INTERFACE_VERSION","inputs":[],"outputs":[{"name":"","type":"string","internalType":"string"}],"stateMutability":"view"},{"type":"function","name":"addToBlockHCUWhitelist","inputs":[{"name":"account","type":"address","internalType":"address"}],"outputs":[],"stateMutability":"nonpayable"},{"type":"function","name":"checkHCUForCast","inputs":[{"name":"resultType","type":"uint8","internalType":"enum FheType"},{"name":"ct","type":"bytes32","internalType":"bytes32"},{"name":"result","type":"bytes32","internalType":"bytes32"},{"name":"caller","type":"address","internalType":"address"}],"outputs":[],"stateMutability":"nonpayable"},{"type":"function","name":"checkHCUForFheAdd","inputs":[{"name":"resultType","type":"uint8","internalType":"enum FheType"},{"name":"scalarByte","type":"bytes1","internalType":"bytes1"},{"name":"lhs","type":"bytes32","internalType":"bytes32"},{"name":"rhs","type":"bytes32","internalType":"bytes32"},{"name":"result","type":"bytes32","internalType":"bytes32"},{"name":"caller","type":"address","internalType":"address"}],"outputs":[],"stateMutability":"nonpayable"},{"type":"function","name":"checkHCUForFheBitAnd","inputs":[{"name":"resultType","type":"uint8","internalType":"enum FheType"},{"name":"scalarByte","type":"bytes1","internalType":"bytes1"},{"name":"lhs","type":"bytes32","internalType":"bytes32"},{"name":"rhs","type":"bytes32","internalType":"bytes32"},{"name":"result","type":"bytes32","internalType":"bytes32"},{"name":"caller","type":"address","internalType":"address"}],"outputs":[],"stateMutability":"nonpayable"},{"type":"function","name":"checkHCUForFheBitOr","inputs":[{"name":"resultType","type":"uint8","internalType":"enum FheType"},{"name":"scalarByte","type":"bytes1","internalType":"bytes1"},{"name":"lhs","type":"bytes32","internalType":"bytes32"},{"name":"rhs","type":"bytes32","internalType":"bytes32"},{"name":"result","type":"bytes32","internalType":"bytes32"},{"name":"caller","type":"address","internalType":"address"}],"outputs":[],"stateMutability":"nonpayable"},{"type":"function","name":"checkHCUForFheBitXor","inputs":[{"name":"resultType","type":"uint8","internalType":"enum FheType"},{"name":"scalarByte","type":"bytes1","internalType":"bytes1"},{"name":"lhs","type":"bytes32","internalType":"bytes32"},{"name":"rhs","type":"bytes32","internalType":"bytes32"},{"name":"result","type":"bytes32","internalType":"bytes32"},{"name":"caller","type":"address","internalType":"address"}],"outputs":[],"stateMutability":"nonpayable"},{"type":"function","name":"checkHCUForFheDiv","inputs":[{"name":"resultType","type":"uint8","internalType":"enum FheType"},{"name":"scalarByte","type":"bytes1","internalType":"bytes1"},{"name":"lhs","type":"bytes32","internalType":"bytes32"},{"name":"","type":"bytes32","internalType":"bytes32"},{"name":"result","type":"bytes32","internalType":"bytes32"},{"name":"caller","type":"address","internalType":"address"}],"outputs":[],"stateMutability":"nonpayable"},{"type":"function","name":"checkHCUForFheEq","inputs":[{"name":"resultType","type":"uint8","internalType":"enum FheType"},{"name":"scalarByte","type":"bytes1","internalType":"bytes1"},{"name":"lhs","type":"bytes32","internalType":"bytes32"},{"name":"rhs","type":"bytes32","internalType":"bytes32"},{"name":"result","type":"bytes32","internalType":"bytes32"},{"name":"caller","type":"address","internalType":"address"}],"outputs":[],"stateMutability":"nonpayable"},{"type":"function","name":"checkHCUForFheGe","inputs":[{"name":"resultType","type":"uint8","internalType":"enum FheType"},{"name":"scalarByte","type":"bytes1","internalType":"bytes1"},{"name":"lhs","type":"bytes32","internalType":"bytes32"},{"name":"rhs","type":"bytes32","internalType":"bytes32"},{"name":"result","type":"bytes32","internalType":"bytes32"},{"name":"caller","type":"address","internalType":"address"}],"outputs":[],"stateMutability":"nonpayable"},{"type":"function","name":"checkHCUForFheGt","inputs":[{"name":"resultType","type":"uint8","internalType":"enum FheType"},{"name":"scalarByte","type":"bytes1","internalType":"bytes1"},{"name":"lhs","type":"bytes32","internalType":"bytes32"},{"name":"rhs","type":"bytes32","internalType":"bytes32"},{"name":"result","type":"bytes32","internalType":"bytes32"},{"name":"caller","type":"address","internalType":"address"}],"outputs":[],"stateMutability":"nonpayable"},{"type":"function","name":"checkHCUForFheLe","inputs":[{"name":"resultType","type":"uint8","internalType":"enum FheType"},{"name":"scalarByte","type":"bytes1","internalType":"bytes1"},{"name":"lhs","type":"bytes32","internalType":"bytes32"},{"name":"rhs","type":"bytes32","internalType":"bytes32"},{"name":"result","type":"bytes32","internalType":"bytes32"},{"name":"caller","type":"address","internalType":"address"}],"outputs":[],"stateMutability":"nonpayable"},{"type":"function","name":"checkHCUForFheLt","inputs":[{"name":"resultType","type":"uint8","internalType":"enum FheType"},{"name":"scalarByte","type":"bytes1","internalType":"bytes1"},{"name":"lhs","type":"bytes32","internalType":"bytes32"},{"name":"rhs","type":"bytes32","internalType":"bytes32"},{"name":"result","type":"bytes32","internalType":"bytes32"},{"name":"caller","type":"address","internalType":"address"}],"outputs":[],"stateMutability":"nonpayable"},{"type":"function","name":"checkHCUForFheMax","inputs":[{"name":"resultType","type":"uint8","internalType":"enum FheType"},{"name":"scalarByte","type":"bytes1","internalType":"bytes1"},{"name":"lhs","type":"bytes32","internalType":"bytes32"},{"name":"rhs","type":"bytes32","internalType":"bytes32"},{"name":"result","type":"bytes32","internalType":"bytes32"},{"name":"caller","type":"address","internalType":"address"}],"outputs":[],"stateMutability":"nonpayable"},{"type":"function","name":"checkHCUForFheMin","inputs":[{"name":"resultType","type":"uint8","internalType":"enum FheType"},{"name":"scalarByte","type":"bytes1","internalType":"bytes1"},{"name":"lhs","type":"bytes32","internalType":"bytes32"},{"name":"rhs","type":"bytes32","internalType":"bytes32"},{"name":"result","type":"bytes32","internalType":"bytes32"},{"name":"caller","type":"address","internalType":"address"}],"outputs":[],"stateMutability":"nonpayable"},{"type":"function","name":"checkHCUForFheMul","inputs":[{"name":"resultType","type":"uint8","internalType":"enum FheType"},{"name":"scalarByte","type":"bytes1","internalType":"bytes1"},{"name":"lhs","type":"bytes32","internalType":"bytes32"},{"name":"rhs","type":"bytes32","internalType":"bytes32"},{"name":"result","type":"bytes32","internalType":"bytes32"},{"name":"caller","type":"address","internalType":"address"}],"outputs":[],"stateMutability":"nonpayable"},{"type":"function","name":"checkHCUForFheNe","inputs":[{"name":"resultType","type":"uint8","internalType":"enum FheType"},{"name":"scalarByte","type":"bytes1","internalType":"bytes1"},{"name":"lhs","type":"bytes32","internalType":"bytes32"},{"name":"rhs","type":"bytes32","internalType":"bytes32"},{"name":"result","type":"bytes32","internalType":"bytes32"},{"name":"caller","type":"address","internalType":"address"}],"outputs":[],"stateMutability":"nonpayable"},{"type":"function","name":"checkHCUForFheNeg","inputs":[{"name":"resultType","type":"uint8","internalType":"enum FheType"},{"name":"ct","type":"bytes32","internalType":"bytes32"},{"name":"result","type":"bytes32","internalType":"bytes32"},{"name":"caller","type":"address","internalType":"address"}],"outputs":[],"stateMutability":"nonpayable"},{"type":"function","name":"checkHCUForFheNot","inputs":[{"name":"resultType","type":"uint8","internalType":"enum FheType"},{"name":"ct","type":"bytes32","internalType":"bytes32"},{"name":"result","type":"bytes32","internalType":"bytes32"},{"name":"caller","type":"address","internalType":"address"}],"outputs":[],"stateMutability":"nonpayable"},{"type":"function","name":"checkHCUForFheRand","inputs":[{"name":"resultType","type":"uint8","internalType":"enum FheType"},{"name":"result","type":"bytes32","internalType":"bytes32"},{"name":"caller","type":"address","internalType":"address"}],"outputs":[],"stateMutability":"nonpayable"},{"type":"function","name":"checkHCUForFheRandBounded","inputs":[{"name":"resultType","type":"uint8","internalType":"enum FheType"},{"name":"result","type":"bytes32","internalType":"bytes32"},{"name":"caller","type":"address","internalType":"address"}],"outputs":[],"stateMutability":"nonpayable"},{"type":"function","name":"checkHCUForFheRem","inputs":[{"name":"resultType","type":"uint8","internalType":"enum FheType"},{"name":"scalarByte","type":"bytes1","internalType":"bytes1"},{"name":"lhs","type":"bytes32","internalType":"bytes32"},{"name":"","type":"bytes32","internalType":"bytes32"},{"name":"result","type":"bytes32","internalType":"bytes32"},{"name":"caller","type":"address","internalType":"address"}],"outputs":[],"stateMutability":"nonpayable"},{"type":"function","name":"checkHCUForFheRotl","inputs":[{"name":"resultType","type":"uint8","internalType":"enum FheType"},{"name":"scalarByte","type":"bytes1","internalType":"bytes1"},{"name":"lhs","type":"bytes32","internalType":"bytes32"},{"name":"rhs","type":"bytes32","internalType":"bytes32"},{"name":"result","type":"bytes32","internalType":"bytes32"},{"name":"caller","type":"address","internalType":"address"}],"outputs":[],"stateMutability":"nonpayable"},{"type":"function","name":"checkHCUForFheRotr","inputs":[{"name":"resultType","type":"uint8","internalType":"enum FheType"},{"name":"scalarByte","type":"bytes1","internalType":"bytes1"},{"name":"lhs","type":"bytes32","internalType":"bytes32"},{"name":"rhs","type":"bytes32","internalType":"bytes32"},{"name":"result","type":"bytes32","internalType":"bytes32"},{"name":"caller","type":"address","internalType":"address"}],"outputs":[],"stateMutability":"nonpayable"},{"type":"function","name":"checkHCUForFheShl","inputs":[{"name":"resultType","type":"uint8","internalType":"enum FheType"},{"name":"scalarByte","type":"bytes1","internalType":"bytes1"},{"name":"lhs","type":"bytes32","internalType":"bytes32"},{"name":"rhs","type":"bytes32","internalType":"bytes32"},{"name":"result","type":"bytes32","internalType":"bytes32"},{"name":"caller","type":"address","internalType":"address"}],"outputs":[],"stateMutability":"nonpayable"},{"type":"function","name":"checkHCUForFheShr","inputs":[{"name":"resultType","type":"uint8","internalType":"enum FheType"},{"name":"scalarByte","type":"bytes1","internalType":"bytes1"},{"name":"lhs","type":"bytes32","internalType":"bytes32"},{"name":"rhs","type":"bytes32","internalType":"bytes32"},{"name":"result","type":"bytes32","internalType":"bytes32"},{"name":"caller","type":"address","internalType":"address"}],"outputs":[],"stateMutability":"nonpayable"},{"type":"function","name":"checkHCUForFheSub","inputs":[{"name":"resultType","type":"uint8","internalType":"enum FheType"},{"name":"scalarByte","type":"bytes1","internalType":"bytes1"},{"name":"lhs","type":"bytes32","internalType":"bytes32"},{"name":"rhs","type":"bytes32","internalType":"bytes32"},{"name":"result","type":"bytes32","internalType":"bytes32"},{"name":"caller","type":"address","internalType":"address"}],"outputs":[],"stateMutability":"nonpayable"},{"type":"function","name":"checkHCUForIfThenElse","inputs":[{"name":"resultType","type":"uint8","internalType":"enum FheType"},{"name":"lhs","type":"bytes32","internalType":"bytes32"},{"name":"middle","type":"bytes32","internalType":"bytes32"},{"name":"rhs","type":"bytes32","internalType":"bytes32"},{"name":"result","type":"bytes32","internalType":"bytes32"},{"name":"caller","type":"address","internalType":"address"}],"outputs":[],"stateMutability":"nonpayable"},{"type":"function","name":"checkHCUForTrivialEncrypt","inputs":[{"name":"resultType","type":"uint8","internalType":"enum FheType"},{"name":"result","type":"bytes32","internalType":"bytes32"},{"name":"caller","type":"address","internalType":"address"}],"outputs":[],"stateMutability":"nonpayable"},{"type":"function","name":"getBlockMeter","inputs":[],"outputs":[{"name":"blockNumber","type":"uint48","internalType":"uint48"},{"name":"usedHCU","type":"uint48","internalType":"uint48"}],"stateMutability":"view"},{"type":"function","name":"getFHEVMExecutorAddress","inputs":[],"outputs":[{"name":"","type":"address","internalType":"address"}],"stateMutability":"view"},{"type":"function","name":"getGlobalHCUCapPerBlock","inputs":[],"outputs":[{"name":"","type":"uint48","internalType":"uint48"}],"stateMutability":"view"},{"type":"function","name":"getMaxHCUDepthPerTx","inputs":[],"outputs":[{"name":"","type":"uint48","internalType":"uint48"}],"stateMutability":"view"},{"type":"function","name":"getMaxHCUPerTx","inputs":[],"outputs":[{"name":"","type":"uint48","internalType":"uint48"}],"stateMutability":"view"},{"type":"function","name":"getVersion","inputs":[],"outputs":[{"name":"","type":"string","internalType":"string"}],"stateMutability":"pure"},{"type":"function","name":"initializeFromEmptyProxy","inputs":[{"name":"hcuCapPerBlock","type":"uint48","internalType":"uint48"},{"name":"maxHCUDepthPerTx","type":"uint48","internalType":"uint48"},{"name":"maxHCUPerTx","type":"uint48","internalType":"uint48"}],"outputs":[],"stateMutability":"nonpayable"},{"type":"function","name":"isBlockHCUWhitelisted","inputs":[{"name":"account","type":"address","internalType":"address"}],"outputs":[{"name":"","type":"bool","internalType":"bool"}],"stateMutability":"view"},{"type":"function","name":"proxiableUUID","inputs":[],"outputs":[{"name":"","type":"bytes32","internalType":"bytes32"}],"stateMutability":"view"},{"type":"function","name":"reinitializeV2","inputs":[{"name":"hcuCapPerBlock","type":"uint48","internalType":"uint48"},{"name":"maxHCUDepthPerTx","type":"uint48","internalType":"uint48"},{"name":"maxHCUPerTx","type":"uint48","internalType":"uint48"}],"outputs":[],"stateMutability":"nonpayable"},{"type":"function","name":"removeFromBlockHCUWhitelist","inputs":[{"name":"account","type":"address","internalType":"address"}],"outputs":[],"stateMutability":"nonpayable"},{"type":"function","name":"setHCUPerBlock","inputs":[{"name":"hcuPerBlock","type":"uint48","internalType":"uint48"}],"outputs":[],"stateMutability":"nonpayable"},{"type":"function","name":"setMaxHCUDepthPerTx","inputs":[{"name":"maxHCUDepthPerTx","type":"uint48","internalType":"uint48"}],"outputs":[],"stateMutability":"nonpayable"},{"type":"function","name":"setMaxHCUPerTx","inputs":[{"name":"maxHCUPerTx","type":"uint48","internalType":"uint48"}],"outputs":[],"stateMutability":"nonpayable"},{"type":"function","name":"upgradeToAndCall","inputs":[{"name":"newImplementation","type":"address","internalType":"address"},{"name":"data","type":"bytes","internalType":"bytes"}],"outputs":[],"stateMutability":"payable"},{"type":"event","name":"BlockHCUWhitelistAdded","inputs":[{"name":"account","type":"address","indexed":true,"internalType":"address"}],"anonymous":false},{"type":"event","name":"BlockHCUWhitelistRemoved","inputs":[{"name":"account","type":"address","indexed":true,"internalType":"address"}],"anonymous":false},{"type":"event","name":"HCUPerBlockSet","inputs":[{"name":"hcuPerBlock","type":"uint48","indexed":false,"internalType":"uint48"}],"anonymous":false},{"type":"event","name":"Initialized","inputs":[{"name":"version","type":"uint64","indexed":false,"internalType":"uint64"}],"anonymous":false},{"type":"event","name":"MaxHCUDepthPerTxSet","inputs":[{"name":"maxHCUDepthPerTx","type":"uint48","indexed":false,"internalType":"uint48"}],"anonymous":false},{"type":"event","name":"MaxHCUPerTxSet","inputs":[{"name":"maxHCUPerTx","type":"uint48","indexed":false,"internalType":"uint48"}],"anonymous":false},{"type":"event","name":"Upgraded","inputs":[{"name":"implementation","type":"address","indexed":true,"internalType":"address"}],"anonymous":false},{"type":"error","name":"AddressEmptyCode","inputs":[{"name":"target","type":"address","internalType":"address"}]},{"type":"error","name":"AlreadyBlockHCUWhitelisted","inputs":[{"name":"account","type":"address","internalType":"address"}]},{"type":"error","name":"CallerMustBeFHEVMExecutorContract","inputs":[]},{"type":"error","name":"ERC1967InvalidImplementation","inputs":[{"name":"implementation","type":"address","internalType":"address"}]},{"type":"error","name":"ERC1967NonPayable","inputs":[]},{"type":"error","name":"FailedCall","inputs":[]},{"type":"error","name":"HCUBlockLimitExceeded","inputs":[]},{"type":"error","name":"HCUPerBlockBelowMaxPerTx","inputs":[]},{"type":"error","name":"HCUTransactionDepthLimitExceeded","inputs":[]},{"type":"error","name":"HCUTransactionLimitExceeded","inputs":[]},{"type":"error","name":"InvalidInitialization","inputs":[]},{"type":"error","name":"MaxHCUPerTxBelowDepth","inputs":[]},{"type":"error","name":"NotBlockHCUWhitelisted","inputs":[{"name":"account","type":"address","internalType":"address"}]},{"type":"error","name":"NotHostOwner","inputs":[{"name":"sender","type":"address","internalType":"address"}]},{"type":"error","name":"NotInitializing","inputs":[]},{"type":"error","name":"NotInitializingFromEmptyProxy","inputs":[]},{"type":"error","name":"OnlyScalarOperationsAreSupported","inputs":[]},{"type":"error","name":"UUPSUnauthorizedCallContext","inputs":[]},{"type":"error","name":"UUPSUnsupportedProxiableUUID","inputs":[{"name":"slot","type":"bytes32","internalType":"bytes32"}]},{"type":"error","name":"UnsupportedOperation","inputs":[]}],"bytecode":{"object":"0x60a080604052346100c257306080525f5160206133aa5f395f51905f525460ff8160401c166100b3576002600160401b03196001600160401b03821601610060575b6040516132e390816100c78239608051818181611ae80152611bc30152f35b6001600160401b0319166001600160401b039081175f5160206133aa5f395f51905f525581527fc7f505b2f371ae2175ee4913f4499e1f2633a7b5936321eed1cdaeb6115181d290602090a15f80610041565b63f92ee8a960e01b5f5260045ffd5b5f80fdfe60806040526004361015610011575f80fd5b5f3560e01c806304553fb6146129c357806307ccdf61146128bb5780630d8e6e2c14612772578063196a456d146126fd5780631e24aa49146126c9578063268d6d31146126a257806328677ca71461255a5780632dcbc5d1146124895780632e3c3906146123455780633311b1bc1461228257806338bd17e5146121715780633bb7d5a31461204c578063458fb27714611f0f578063497c22c514611e475780634f1ef28614611b4757806352d1902d14611ace5780635c414b5714611a455780635f76eb301461196a57806360e12189146117a557806369931afb146116d45780636bad18b61461150f5780636cf0bd25146114cd5780636fd65e4d146113835780637748671a14611351578063818f4d69146112115780638629f545146110a7578063968302d714610f675780639b3f781a14610e955780639f4b993714610e635780639f9259bb14610d39578063a036ea2e14610cb0578063ab39475514610bf9578063ad3cb1cc14610b9e578063b59547b814610b6d578063b78bef5914610aa5578063c0c5df7c146109e2578063c1390c3414610908578063c13c1971146108d4578063c277a93614610797578063c8de43521461060b578063d5b8b8f31461054d578063d633c96b1461040d578063ede8776e146103ab5763f7d198f8146101fd575f80fd5b346103a75761020b36612b19565b92935f51602061326e5f395f51905f52959291953303610398576001600160f81b031916600160f81b03610307575060548110156102f3576002810361026957506102659161025e617d00925b836130c5565b5c90612e1d565b905d005b6003810361028257506102659161025e617d0092610258565b6004810361029b57506102659161025e617d0092610258565b600581036102b457506102659161025e6184d092610258565b600681036102cd57506102659161025e61908892610258565b6008036102e4576102659161025e61985892610258565b639ba6061b60e01b5f5260045ffd5b634e487b7160e01b5f52602160045260245ffd5b9193929060548110156102f3576002810361032c575061032a9362016760612e3e565b005b60038103610342575061032a936201e848612e3e565b60048103610358575061032a93620278d0612e3e565b6005810361036e575061032a9362032c80612e3e565b60068103610384575061032a9362042680612e3e565b6008036102e45761032a936205c490612e3e565b6331a81a8160e01b5f5260045ffd5b5f80fd5b346103a75760203660031901126103a757602060ff6104016103cb612b03565b6001600160a01b03165f527fc13af6c514bff8997f30c90003baa82bd02aad978179d1ce58d85c4319ad650160205260405f2090565b54166040519015158152f35b346103a75761041b36612b19565b92935f51602061326e5f395f51905f52959291953303610398576001600160f81b031916600160f81b036104d4575060548110156102f3576002810361046e57506102659161025e6201482092836130c5565b6003810361048857506102659161025e62016b4892610258565b600481036104a257506102659161025e6201731892610258565b600581036104bc57506102659161025e6202078892610258565b6006036102e4576102659161025e62029fe092610258565b9193929060548110156102f357600281036104f7575061032a9362016378612e3e565b6003810361050d575061032a9362016b48612e3e565b60048103610523575061032a936201e848612e3e565b60058103610539575061032a93620278d0612e3e565b6006036102e45761032a936203f7a0612e3e565b346103a75761055b36612c5b565b915f51602061326e5f395f51905f5233036103985760548110156102f3578061058f575061058c614a3892836130c5565b5d005b600281036105a4575061058c6159d892610258565b600381036105b9575061058c6159d892610258565b600481036105ce575061058c615dc092610258565b600581036105e3575061058c615dc092610258565b600681036105f8575061058c6161a892610258565b6008036102e45761058c61753092610258565b346103a75761061936612b19565b92935f51602061326e5f395f51905f52959291953303610398576001600160f81b031916600160f81b036106fc575060548110156102f3578061066857506102659161025e6155f092836130c5565b6002810361068157506102659161025e61791892610258565b6003810361069a57506102659161025e61791892610258565b600481036106b357506102659161025e617d0092610258565b600581036106cc57506102659161025e6184d092610258565b600681036106e557506102659161025e61908892610258565b6008036102e4576102659161025e61947092610258565b9193929060548110156102f3578061071b575061032a936161a8612e3e565b60028103610730575061032a93617918612e3e565b60038103610745575061032a93617918612e3e565b6004810361075a575061032a93617d00612e3e565b6005810361076f575061032a936184d0612e3e565b60068103610784575061032a93619088612e3e565b6008036102e45761032a93619470612e3e565b346103a7576107a536612b19565b92935f51602061326e5f395f51905f52959291953303610398576001600160f81b031916600160f81b0361085c575060548110156102f357600281036107f757506102659161025e61cb2092836130c5565b6003810361081057506102659161025e61d6d892610258565b6004810361082a57506102659161025e6201482092610258565b6005810361084457506102659161025e6201c52092610258565b6006036102e4576102659161025e6202460892610258565b9193929060548110156102f3576002810361087e575061032a9361f618612e3e565b60038103610894575061032a9362014820612e3e565b600481036108aa575061032a936201ccf0612e3e565b600581036108c0575061032a93620251c0612e3e565b6006036102e45761032a9362033450612e3e565b346103a7575f3660031901126103a757602065ffffffffffff5f51602061328e5f395f51905f525460c01c16604051908152f35b346103a75761091636612b19565b92935f51602061326e5f395f51905f52959291953303610398576001600160f81b031916600160f81b03610969575060548110156102f3576002810361046e57506102659161025e6201482092836130c5565b9193929060548110156102f3576002810361098c575061032a93620157c0612e3e565b600381036109a2575061032a9362016b48612e3e565b600481036109b8575061032a936201e848612e3e565b600581036109ce575061032a93620278d0612e3e565b6006036102e45761032a936203f3b8612e3e565b346103a7576109f036612b19565b92935f51602061326e5f395f51905f52959291953303610398576001600160f81b031916600160f81b03610a71575060548110156102f35780610a3f57506102659161025e6155f092836130c5565b60028103610a5857506102659161025e61753092610258565b6003810361069a57506102659161025e61753092610258565b9193929060548110156102f35780610a90575061032a93615dc0612e3e565b60028103610730575061032a93617530612e3e565b346103a757610ab336612c5b565b915f51602061326e5f395f51905f5233036103985760548110156102f35780610ae3575061058c602092836130c5565b60028103610af7575061058c602092610258565b60038103610b0b575061058c602092610258565b60048103610b1f575061058c602092610258565b60058103610b33575061058c602092610258565b60068103610b47575061058c602092610258565b60078103610b5b575061058c602092610258565b6008036102e45761058c602092610258565b346103a7575f3660031901126103a757602065ffffffffffff5f51602061328e5f395f51905f525416604051908152f35b346103a7575f3660031901126103a757610bf5604051610bbf604082612c09565b600581527f352e302e30000000000000000000000000000000000000000000000000000000602082015260405191829182612b69565b0390f35b346103a75760203660031901126103a757610c12612b93565b604051638da5cb5b60e01b81526020816004817350157cffd6bbfa2dece204a89ec419c23ef5755d5afa8015610ca5576001600160a01b03915f91610c76575b50163303610c635761032a90612f4f565b63021bfda160e41b5f523360045260245ffd5b610c98915060203d602011610c9e575b610c908183612c09565b810190612dbd565b83610c52565b503d610c86565b6040513d5f823e3d90fd5b346103a75760203660031901126103a757610cc9612b93565b604051638da5cb5b60e01b81526020816004817350157cffd6bbfa2dece204a89ec419c23ef5755d5afa8015610ca5576001600160a01b03915f91610d1a575b50163303610c635761032a90612ecd565b610d33915060203d602011610c9e57610c908183612c09565b83610d09565b346103a757610d4736612b19565b92935f51602061326e5f395f51905f52959291953303610398576001600160f81b031916600160f81b03610dc8575060548110156102f35780610d9657506102659161025e6155f092836130c5565b60028103610daf57506102659161025e61791892610258565b6003810361028257506102659161025e61791892610258565b9193929060548110156102f35780610de7575061032a936155f0612e3e565b60028103610dfc575061032a93617918612e3e565b60038103610e11575061032a93617918612e3e565b60048103610e26575061032a93617d00612e3e565b60058103610e3b575061032a936184d0612e3e565b60068103610e50575061032a93619088612e3e565b6008036102e45761032a93619858612e3e565b346103a7575f3660031901126103a757604065ffffffffffff610e84612ddc565b835191831682529091166020820152f35b346103a757610ea336612b19565b9293909491505f51602061326e5f395f51905f523303610398576001600160f81b031990811601610f585760548110156102f35760028103610ef257506102659161025e6203345092836130c5565b60038103610f0c57506102659161025e62049bb092610258565b60048103610f2657506102659161025e6206aef092610258565b60058103610f4057506102659161025e620ae8f892610258565b6006036102e4576102659161025e6212b12892610258565b636aa9eb0560e01b5f5260045ffd5b346103a757610f7536612b19565b92935f51602061326e5f395f51905f52959291953303610398576001600160f81b031916600160f81b0361102e575060548110156102f35760028103610fc857506102659161025e62015ba892836130c5565b60038103610fe257506102659161025e62015ba892610258565b60048103610ffc57506102659161025e6201c90892610258565b6005810361101657506102659161025e6202460892610258565b6006036102e4576102659161025e6202bf2092610258565b9193929060548110156102f35760028103611051575061032a936201d8a8612e3e565b60038103611067575061032a9362023668612e3e565b6004810361107d575061032a936202bf20612e3e565b60058103611093575061032a9362035390612e3e565b6006036102e45761032a9362046cd0612e3e565b346103a7576110b536612b19565b92935f51602061326e5f395f51905f52959291953303610398576001600160f81b031916600160f81b03611182575060548110156102f3576002810361110757506102659161025e61791892836130c5565b6003810361112057506102659161025e61791892610258565b6004810361113957506102659161025e617d0092610258565b6005810361115257506102659161025e6184d092610258565b6006810361116b57506102659161025e61908892610258565b6008036102e4576102659161025e619c4092610258565b9193929060548110156102f357600281036111a5575061032a9362016b48612e3e565b600381036111bb575061032a936201e848612e3e565b600481036111d1575061032a9362027100612e3e565b600581036111e7575061032a9362033068612e3e565b600681036111fd575061032a9362045178612e3e565b6008036102e45761032a936205b8d8612e3e565b346103a75761121f36612b19565b92935f51602061326e5f395f51905f52959291953303610398576001600160f81b031916600160f81b036112d8575060548110156102f3576002810361127257506102659161025e6201dc9092836130c5565b6003810361128c57506102659161025e6202f1e892610258565b600481036112a657506102659161025e62040b2892610258565b600581036112c057506102659161025e620591c892610258565b6006036102e4576102659161025e620a9ec092610258565b9193929060548110156102f357600281036112fb575061032a93620249f0612e3e565b60038103611311575061032a9362036330612e3e565b60048103611327575061032a9362050140612e3e565b6005810361133d575061032a9362091820612e3e565b6006036102e45761032a936219b9f0612e3e565b346103a75760603660031901126103a75761032a61136d612b93565b611375612ba8565b61137d612bbd565b91612c8e565b346103a75760203660031901126103a75761139c612b03565b604051638da5cb5b60e01b81526020816004817350157cffd6bbfa2dece204a89ec419c23ef5755d5afa8015610ca5576001600160a01b03915f916114ae575b50163303610c63578060ff6114296001600160a01b03936001600160a01b03165f527fc13af6c514bff8997f30c90003baa82bd02aad978179d1ce58d85c4319ad650160205260405f2090565b541661149b57611469816001600160a01b03165f527fc13af6c514bff8997f30c90003baa82bd02aad978179d1ce58d85c4319ad650160205260405f2090565b805460ff19166001179055167fcca1d46384cdbbeef2f9daddb76db138101c9905f818d867b630195c128d3c665f80a2005b63f99c4fd160e01b5f521660045260245ffd5b6114c7915060203d602011610c9e57610c908183612c09565b836113dc565b346103a7576114db36612c5b565b915f51602061326e5f395f51905f5233036103985760548110156102f357600281036105a4575061058c6159d892836130c5565b346103a75761151d36612b19565b92935f51602061326e5f395f51905f52959291953303610398576001600160f81b031916600160f81b0361161e575060548110156102f3578061156c57506102659161025e6159d892836130c5565b6002810361158557506102659161025e61d6d892610258565b6003810361159e57506102659161025e61d6d892610258565b600481036115b857506102659161025e6201443892610258565b600581036115d257506102659161025e6201482092610258565b600681036115ec57506102659161025e6201c90892610258565b6007810361160657506102659161025e6201c90892610258565b6008036102e4576102659161025e6201c90892610258565b9193929060548110156102f3578061163d575061032a936159d8612e3e565b60028103611652575061032a9361d6d8612e3e565b60038103611668575061032a9362014438612e3e565b6004810361167e575061032a9362014c08612e3e565b60058103611694575061032a936201ccf0612e3e565b600681036116aa575061032a936201dc90612e3e565b600781036116c0575061032a9362021340612e3e565b6008036102e45761032a93620249f0612e3e565b346103a7576116e236612bd2565b90925f51602061326e5f395f51905f5233036103985760548110156102f3578061171757506102659161025e602092836130c5565b6002810361172f57506102659161025e602092610258565b6003810361174757506102659161025e602092610258565b6004810361175f57506102659161025e602092610258565b6005810361177757506102659161025e602092610258565b6006810361178f57506102659161025e602092610258565b6008036102e4576102659161025e602092610258565b346103a7576117b336612b19565b92935f51602061326e5f395f51905f52959291953303610398576001600160f81b031916600160f81b036118b4575060548110156102f3578061180257506102659161025e6161a892836130c5565b6002810361181b57506102659161025e61d6d892610258565b6003810361183457506102659161025e61d6d892610258565b6004810361184e57506102659161025e6201405092610258565b6005810361186857506102659161025e6201443892610258565b6006810361188257506102659161025e6201c90892610258565b6007810361189c57506102659161025e6201c90892610258565b6008036102e4576102659161025e6201ccf092610258565b9193929060548110156102f357806118d3575061032a93616590612e3e565b600281036118e8575061032a9361d6d8612e3e565b600381036118fe575061032a9362014438612e3e565b60048103611914575061032a9362014ff0612e3e565b6005810361192a575061032a936201d4c0612e3e565b60068103611940575061032a936201dc90612e3e565b60078103611956575061032a9362021728612e3e565b6008036102e45761032a93620251c0612e3e565b346103a75761197836612b19565b92935f51602061326e5f395f51905f52959291953303610398576001600160f81b031916600160f81b036119ca575060548110156102f3576002810361068157506102659161025e61791892836130c5565b9193929060548110156102f357600281036119ed575061032a9362016378612e3e565b60038103611a03575061032a936201e848612e3e565b60048103611a19575061032a9362027cb8612e3e565b60058103611a2f575061032a9362033068612e3e565b60068103610384575061032a9362043df0612e3e565b346103a75760203660031901126103a757611a5e612b93565b604051638da5cb5b60e01b81526020816004817350157cffd6bbfa2dece204a89ec419c23ef5755d5afa8015610ca5576001600160a01b03915f91611aaf575b50163303610c635761032a9061301c565b611ac8915060203d602011610c9e57610c908183612c09565b83611a9e565b346103a7575f3660031901126103a7576001600160a01b037f0000000000000000000000000000000000000000000000000000000000000000163003611b385760206040517f360894a13ba1a3210667c828492db98dca3e2076cc3735a920a3ca505d382bbc8152f35b63703e46dd60e11b5f5260045ffd5b60403660031901126103a757611b5b612b03565b6024359067ffffffffffffffff82116103a757366023830112156103a757816004013590611b8882612c3f565b91611b966040519384612c09565b808352602083019336602483830101116103a757815f926024602093018737840101526001600160a01b037f000000000000000000000000000000000000000000000000000000000000000016803014908115611e12575b50611b3857604051638da5cb5b60e01b81526020816004817350157cffd6bbfa2dece204a89ec419c23ef5755d5afa8015610ca5576001600160a01b03915f91611df3575b50163303610c63576040516352d1902d60e01b81526001600160a01b0382169390602081600481885afa5f9181611dbf575b50611c7d5784634c9c8ce360e01b5f5260045260245ffd5b807f360894a13ba1a3210667c828492db98dca3e2076cc3735a920a3ca505d382bbc869203611dad5750823b15611d9b57807fffffffffffffffffffffffff00000000000000000000000000000000000000007f360894a13ba1a3210667c828492db98dca3e2076cc3735a920a3ca505d382bbc5416177f360894a13ba1a3210667c828492db98dca3e2076cc3735a920a3ca505d382bbc557fbc7cd75a20ee27fd9adebab32041f755214dbc6bffa90cc0225b39da2e5c2d3b5f80a2825115611d82575f809161032a945190845af43d15611d7a573d91611d5e83612c3f565b92611d6c6040519485612c09565b83523d5f602085013e613213565b606091613213565b50505034611d8c57005b63b398979f60e01b5f5260045ffd5b634c9c8ce360e01b5f5260045260245ffd5b632a87526960e21b5f5260045260245ffd5b9091506020813d602011611deb575b81611ddb60209383612c09565b810103126103a757519086611c65565b3d9150611dce565b611e0c915060203d602011610c9e57610c908183612c09565b85611c33565b90506001600160a01b037f360894a13ba1a3210667c828492db98dca3e2076cc3735a920a3ca505d382bbc5416141584611bee565b346103a757611e5536612bd2565b90925f51602061326e5f395f51905f5233036103985760548110156102f35760028103611e8f57506102659161025e6201349892836130c5565b60038103611ea957506102659161025e62016b4892610258565b60048103611ec357506102659161025e6201731892610258565b60058103611edd57506102659161025e6201ffb892610258565b60068103611ef757506102659161025e6202904092610258565b6008036102e4576102659161025e62041ac892610258565b346103a757611f1d36612b19565b92935f51602061326e5f395f51905f52959291953303610398576001600160f81b031916600160f81b03611fd4575060548110156102f35760028103611f6f57506102659161025e61cb2092836130c5565b60038103611f8857506102659161025e61d6d892610258565b60048103611fa257506102659161025e6201482092610258565b60058103611fbc57506102659161025e6201c90892610258565b6006036102e4576102659161025e620249f092610258565b9193929060548110156102f35760028103611ff6575061032a9361e678612e3e565b6003810361200c575061032a9362014820612e3e565b60048103612022575061032a936201ccf0612e3e565b60058103612038575061032a93620251c0612e3e565b6006036102e45761032a9362035390612e3e565b346103a75761205a36612b19565b92935f51602061326e5f395f51905f52959291953303610398576001600160f81b031916600160f81b036120f9575060548110156102f357600281036120ac57506102659161025e61cb2092836130c5565b600381036120c557506102659161025e61e29092610258565b600481036120df57506102659161025e6201443892610258565b6005810361084457506102659161025e6201ccf092610258565b9193929060548110156102f3576002810361211b575061032a9361e678612e3e565b60038103612131575061032a9362014820612e3e565b60048103612147575061032a936201c908612e3e565b6005810361215d575061032a9362023a50612e3e565b6006036102e45761032a93620347d8612e3e565b346103a75761217f36612b19565b92935f51602061326e5f395f51905f52959291953303610398576001600160f81b031916600160f81b0361221e575060548110156102f357600281036121d157506102659161025e61e29092836130c5565b600381036121ea57506102659161025e61e29092610258565b6004810361220457506102659161025e6201482092610258565b60058103611fbc57506102659161025e6201d0d892610258565b9193929060548110156102f35760028103612240575061032a9361e290612e3e565b60038103612256575061032a9362014438612e3e565b6004810361226c575061032a936201c908612e3e565b60058103612038575061032a9362024608612e3e565b346103a75761229036612b19565b9293909491505f51602061326e5f395f51905f523303610398576001600160f81b031990811601610f585760548110156102f357600281036122df57506102659161025e6206b6c092836130c5565b600381036122f957506102659161025e6208d9a092610258565b6004810361231357506102659161025e620c15c092610258565b6005810361232d57506102659161025e621197e892610258565b6006036102e4576102659161025e621da5d892610258565b346103a75760c03660031901126103a75760043560548110156103a75760a435906001600160a01b03821682036103a7575f51602061326e5f395f51905f52330361039857806123da57506123c5906123a261d6d8915b826130c5565b6024355c6044355c6064355c8082106123d357505b8082106123cb575090612e1d565b6084355d005b905090612e1d565b90506123b7565b600281036123f357506123c5906123a261d6d89161239c565b6003810361240c57506123c5906123a261d6d89161239c565b6004810361242557506123c5906123a261d6d89161239c565b6005810361243e57506123c5906123a261d6d89161239c565b6006810361245757506123c5906123a261dea89161239c565b6007810361247157506123c5906123a2620144389161239c565b6008036102e4576123c5906123a26201a5e09161239c565b346103a75761249736612bd2565b90925f51602061326e5f395f51905f5233036103985760548110156102f357806124cc57506102659161025e600292836130c5565b600281036124e457506102659161025e600992610258565b600381036124fc57506102659161025e601092610258565b6004810361251457506102659161025e602092610258565b6005810361252c57506102659161025e603f92610258565b6006810361254457506102659161025e608292610258565b6008036102e4576102659161025e608292610258565b346103a75760203660031901126103a757612573612b03565b604051638da5cb5b60e01b81526020816004817350157cffd6bbfa2dece204a89ec419c23ef5755d5afa8015610ca5576001600160a01b03915f91612683575b50163303610c63578060ff6126006001600160a01b03936001600160a01b03165f527fc13af6c514bff8997f30c90003baa82bd02aad978179d1ce58d85c4319ad650160205260405f2090565b54161561267057612641816001600160a01b03165f527fc13af6c514bff8997f30c90003baa82bd02aad978179d1ce58d85c4319ad650160205260405f2090565b805460ff19169055167f92fc97af15002646cea63c7633bb375b82db7cde7b480c75fe6341dacc292c815f80a2005b631c79868360e31b5f521660045260245ffd5b61269c915060203d602011610c9e57610c908183612c09565b836125b3565b346103a7575f3660031901126103a75760206040515f51602061326e5f395f51905f528152f35b346103a7575f3660031901126103a757602065ffffffffffff5f51602061328e5f395f51905f525460901c16604051908152f35b346103a75760603660031901126103a757612716612b93565b61271e612ba8565b612726612bbd565b90600167ffffffffffffffff7ff0c57e16840df040f15088dc2f81fe391c3923bec73e23a9662efc9c229c6a005416036127635761032a92612c8e565b636f4f731f60e01b5f5260045ffd5b346103a7575f3660031901126103a75760408051906127918183612c09565b6008825260208201907f4843554c696d697400000000000000000000000000000000000000000000000082526127c5612e62565b6002906127d26001612c3f565b946127df84519687612c09565b600186526127ed6001612c3f565b602087019390601f1901368537600a602188015b5f1901916f181899199a1a9b1b9c1cb0b131b232b360811b8282061a83530490811561282f57600a90612801565b505060016020819360026128b196610bf59a848061284b612e62565b958c519d8e9a518091848d015e8a019061103b60f11b83830152805192839101602283015e010190601760f91b84830152518092600383015e010190601760f91b84830152805192839101600283015e01015f838201520301601f198101845283612c09565b5191829182612b69565b346103a7576128c936612b19565b92935f51602061326e5f395f51905f52959291953303610398576001600160f81b031916600160f81b03612934575060548110156102f3576002810361291b57506102659161025e617d0092836130c5565b6003810361069a57506102659161025e617d0092610258565b9193929060548110156102f35760028103612957575061032a9362016378612e3e565b6003810361296d575061032a936201e078612e3e565b60048103612983575061032a9362027cb8612e3e565b60058103612999575061032a9362033068612e3e565b600681036129af575061032a9362042680612e3e565b6008036102e45761032a936205a168612e3e565b346103a7576129d136612b19565b92935f51602061326e5f395f51905f52959291953303610398576001600160f81b031916600160f81b03612a8a575060548110156102f35760028103612a2457506102659161025e6201482092836130c5565b60038103612a3e57506102659161025e620157c092610258565b60048103612a5857506102659161025e6201c90892610258565b60058103612a7257506102659161025e620249f092610258565b6006036102e4576102659161025e6202d69092610258565b9193929060548110156102f35760028103612aad575061032a936201d0d8612e3e565b60038103612ac3575061032a9362023a50612e3e565b60048103612ad9575061032a936202c6f0612e3e565b60058103612aef575061032a9362035778612e3e565b6006036102e45761032a93620468e8612e3e565b600435906001600160a01b03821682036103a757565b60c09060031901126103a75760043560548110156103a757906024356001600160f81b0319811681036103a7579060443590606435906084359060a4356001600160a01b03811681036103a75790565b602060409281835280519182918282860152018484015e5f828201840152601f01601f1916010190565b6004359065ffffffffffff821682036103a757565b6024359065ffffffffffff821682036103a757565b6044359065ffffffffffff821682036103a757565b60809060031901126103a75760043560548110156103a7579060243590604435906064356001600160a01b03811681036103a75790565b90601f8019910116810190811067ffffffffffffffff821117612c2b57604052565b634e487b7160e01b5f52604160045260245ffd5b67ffffffffffffffff8111612c2b57601f01601f191660200190565b60609060031901126103a75760043560548110156103a75790602435906044356001600160a01b03811681036103a75790565b7ff0c57e16840df040f15088dc2f81fe391c3923bec73e23a9662efc9c229c6a005460ff8160401c16908115612da7575b50612d98577ff0c57e16840df040f15088dc2f81fe391c3923bec73e23a9662efc9c229c6a00805468ffffffffffffffffff191668010000000000000003179055612d1b92612d1691612d1190612ecd565b612f4f565b61301c565b68ff0000000000000000197ff0c57e16840df040f15088dc2f81fe391c3923bec73e23a9662efc9c229c6a0054167ff0c57e16840df040f15088dc2f81fe391c3923bec73e23a9662efc9c229c6a00557fc7f505b2f371ae2175ee4913f4499e1f2633a7b5936321eed1cdaeb6115181d2602060405160038152a1565b63f92ee8a960e01b5f5260045ffd5b6003915067ffffffffffffffff1610155f612cbf565b908160209103126103a757516001600160a01b03811681036103a75790565b65ffffffffffff4316905f51602061328e5f395f51905f5254918065ffffffffffff8460601c1603612e17579160301c65ffffffffffff1690565b91505f90565b91908201809211612e2a57565b634e487b7160e01b5f52601160045260245ffd5b91612e4d612e5e9492846130c5565b5c905c8082106123cb575090612e1d565b905d565b5f612e6d6001612c3f565b90612e7b6040519283612c09565b60018252601f19612e8c6001612c3f565b01366020840137600a602183015b5f1901916f181899199a1a9b1b9c1cb0b131b232b360811b8282061a8353048015612ec857600a9091612e9a565b505090565b65ffffffffffff5f51602061328e5f395f51905f525491169065ffffffffffff8160c01c168210612f405765ffffffffffff191681175f51602061328e5f395f51905f52556040519081527fc1f1fcaa898aae2263dded712e1798083fca9272ff803ee4150ce48f8619891a90602090a1565b6304acca2f60e01b5f5260045ffd5b5f51602061328e5f395f51905f52549065ffffffffffff81168065ffffffffffff841610612f405765ffffffffffff8360901c16811061300d577f64cb9e7ae6497c59080cdbc048552e123d52aa4240e137758a173582786961ca927fffff000000000000ffffffffffffffffffffffffffffffffffffffffffffffff7dffffffffffff00000000000000000000000000000000000000000000000060209460c01b169116175f51602061328e5f395f51905f5255604051908152a1565b632bec58cf60e21b5f5260045ffd5b5f51602061328e5f395f51905f52549065ffffffffffff81168065ffffffffffff8460c01c161061300d577f5511b1851fc40a2629c855bab7adce3276c470d8190eb01431e418dc2af13e8e927fffffffffffffffff000000000000ffffffffffffffffffffffffffffffffffff77ffffffffffff00000000000000000000000000000000000060209460901b169116175f51602061328e5f395f51905f5255604051908152a1565b6130d26130da928261310d565b5f5c90612e1d565b65ffffffffffff5f51602061328e5f395f51905f525460c01c1681116130fe575f5d565b6377e3c29360e01b5f5260045ffd5b9061314a60ff916001600160a01b03165f527fc13af6c514bff8997f30c90003baa82bd02aad978179d1ce58d85c4319ad650160205260405f2090565b5416613210576131975f51602061328e5f395f51905f52549165ffffffffffff8360301c1665ffffffffffff431665ffffffffffff8560601c1603613209575b65ffffffffffff16612e1d565b9065ffffffffffff811682116131fa576bffffffffffff00000000000071ffffffffffff0000000000000000000000004360601b169260301b169071ffffffffffffffffffffffff000000000000191617175f51602061328e5f395f51905f5255565b632b49445d60e21b5f5260045ffd5b505f61318a565b50565b90613237575080511561322857805190602001fd5b63d6bda27560e01b5f5260045ffd5b81511580613264575b613248575090565b6001600160a01b0390639996b31560e01b5f521660045260245ffd5b50803b1561324056fe000000000000000000000000e3a9105a3a932253a70f126eb1e3b589c643dd24c13af6c514bff8997f30c90003baa82bd02aad978179d1ce58d85c4319ad6500a2646970667358221220537e7fc3f5da3cf31a8a1e996ccb0c2c7b802d5540e816d6c8bec71f700f049064736f6c634300081b0033f0c57e16840df040f15088dc2f81fe391c3923bec73e23a9662efc9c229c6a00","linkReferences":{}},"methodIdentifiers":{"UPGRADE_INTERFACE_VERSION()":"ad3cb1cc","addToBlockHCUWhitelist(address)":"6fd65e4d","checkHCUForCast(uint8,bytes32,bytes32,address)":"69931afb","checkHCUForFheAdd(uint8,bytes1,bytes32,bytes32,bytes32,address)":"c1390c34","checkHCUForFheBitAnd(uint8,bytes1,bytes32,bytes32,bytes32,address)":"c8de4352","checkHCUForFheBitOr(uint8,bytes1,bytes32,bytes32,bytes32,address)":"c0c5df7c","checkHCUForFheBitXor(uint8,bytes1,bytes32,bytes32,bytes32,address)":"9f9259bb","checkHCUForFheDiv(uint8,bytes1,bytes32,bytes32,bytes32,address)":"9b3f781a","checkHCUForFheEq(uint8,bytes1,bytes32,bytes32,bytes32,address)":"60e12189","checkHCUForFheGe(uint8,bytes1,bytes32,bytes32,bytes32,address)":"c277a936","checkHCUForFheGt(uint8,bytes1,bytes32,bytes32,bytes32,address)":"458fb277","checkHCUForFheLe(uint8,bytes1,bytes32,bytes32,bytes32,address)":"38bd17e5","checkHCUForFheLt(uint8,bytes1,bytes32,bytes32,bytes32,address)":"3bb7d5a3","checkHCUForFheMax(uint8,bytes1,bytes32,bytes32,bytes32,address)":"968302d7","checkHCUForFheMin(uint8,bytes1,bytes32,bytes32,bytes32,address)":"04553fb6","checkHCUForFheMul(uint8,bytes1,bytes32,bytes32,bytes32,address)":"818f4d69","checkHCUForFheNe(uint8,bytes1,bytes32,bytes32,bytes32,address)":"6bad18b6","checkHCUForFheNeg(uint8,bytes32,bytes32,address)":"497c22c5","checkHCUForFheNot(uint8,bytes32,bytes32,address)":"2dcbc5d1","checkHCUForFheRand(uint8,bytes32,address)":"d5b8b8f3","checkHCUForFheRandBounded(uint8,bytes32,address)":"6cf0bd25","checkHCUForFheRem(uint8,bytes1,bytes32,bytes32,bytes32,address)":"3311b1bc","checkHCUForFheRotl(uint8,bytes1,bytes32,bytes32,bytes32,address)":"5f76eb30","checkHCUForFheRotr(uint8,bytes1,bytes32,bytes32,bytes32,address)":"8629f545","checkHCUForFheShl(uint8,bytes1,bytes32,bytes32,bytes32,address)":"f7d198f8","checkHCUForFheShr(uint8,bytes1,bytes32,bytes32,bytes32,address)":"07ccdf61","checkHCUForFheSub(uint8,bytes1,bytes32,bytes32,bytes32,address)":"d633c96b","checkHCUForIfThenElse(uint8,bytes32,bytes32,bytes32,bytes32,address)":"2e3c3906","checkHCUForTrivialEncrypt(uint8,bytes32,address)":"b78bef59","getBlockMeter()":"9f4b9937","getFHEVMExecutorAddress()":"268d6d31","getGlobalHCUCapPerBlock()":"b59547b8","getMaxHCUDepthPerTx()":"1e24aa49","getMaxHCUPerTx()":"c13c1971","getVersion()":"0d8e6e2c","initializeFromEmptyProxy(uint48,uint48,uint48)":"196a456d","isBlockHCUWhitelisted(address)":"ede8776e","proxiableUUID()":"52d1902d","reinitializeV2(uint48,uint48,uint48)":"7748671a","removeFromBlockHCUWhitelist(address)":"28677ca7","setHCUPerBlock(uint48)":"a036ea2e","setMaxHCUDepthPerTx(uint48)":"5c414b57","setMaxHCUPerTx(uint48)":"ab394755","upgradeToAndCall(address,bytes)":"4f1ef286"},"gasEstimates":{"creation":{"codeDepositCost":"2605400","executionCost":"infinite","totalCost":"infinite"},"external":{"UPGRADE_INTERFACE_VERSION()":"1131","addToBlockHCUWhitelist(address)":"infinite","checkHCUForCast(uint8,bytes32,bytes32,address)":"infinite","checkHCUForFheAdd(uint8,bytes1,bytes32,bytes32,bytes32,address)":"infinite","checkHCUForFheBitAnd(uint8,bytes1,bytes32,bytes32,bytes32,address)":"infinite","checkHCUForFheBitOr(uint8,bytes1,bytes32,bytes32,bytes32,address)":"infinite","checkHCUForFheBitXor(uint8,bytes1,bytes32,bytes32,bytes32,address)":"infinite","checkHCUForFheDiv(uint8,bytes1,bytes32,bytes32,bytes32,address)":"infinite","checkHCUForFheEq(uint8,bytes1,bytes32,bytes32,bytes32,address)":"infinite","checkHCUForFheGe(uint8,bytes1,bytes32,bytes32,bytes32,address)":"infinite","checkHCUForFheGt(uint8,bytes1,bytes32,bytes32,bytes32,address)":"infinite","checkHCUForFheLe(uint8,bytes1,bytes32,bytes32,bytes32,address)":"infinite","checkHCUForFheLt(uint8,bytes1,bytes32,bytes32,bytes32,address)":"infinite","checkHCUForFheMax(uint8,bytes1,bytes32,bytes32,bytes32,address)":"infinite","checkHCUForFheMin(uint8,bytes1,bytes32,bytes32,bytes32,address)":"infinite","checkHCUForFheMul(uint8,bytes1,bytes32,bytes32,bytes32,address)":"infinite","checkHCUForFheNe(uint8,bytes1,bytes32,bytes32,bytes32,address)":"infinite","checkHCUForFheNeg(uint8,bytes32,bytes32,address)":"infinite","checkHCUForFheNot(uint8,bytes32,bytes32,address)":"infinite","checkHCUForFheRand(uint8,bytes32,address)":"infinite","checkHCUForFheRandBounded(uint8,bytes32,address)":"infinite","checkHCUForFheRem(uint8,bytes1,bytes32,bytes32,bytes32,address)":"infinite","checkHCUForFheRotl(uint8,bytes1,bytes32,bytes32,bytes32,address)":"infinite","checkHCUForFheRotr(uint8,bytes1,bytes32,bytes32,bytes32,address)":"infinite","checkHCUForFheShl(uint8,bytes1,bytes32,bytes32,bytes32,address)":"infinite","checkHCUForFheShr(uint8,bytes1,bytes32,bytes32,bytes32,address)":"infinite","checkHCUForFheSub(uint8,bytes1,bytes32,bytes32,bytes32,address)":"infinite","checkHCUForIfThenElse(uint8,bytes32,bytes32,bytes32,bytes32,address)":"infinite","checkHCUForTrivialEncrypt(uint8,bytes32,address)":"infinite","getBlockMeter()":"infinite","getFHEVMExecutorAddress()":"284","getGlobalHCUCapPerBlock()":"infinite","getMaxHCUDepthPerTx()":"infinite","getMaxHCUPerTx()":"infinite","getVersion()":"infinite","initializeFromEmptyProxy(uint48,uint48,uint48)":"infinite","isBlockHCUWhitelisted(address)":"3349","proxiableUUID()":"infinite","reinitializeV2(uint48,uint48,uint48)":"infinite","removeFromBlockHCUWhitelist(address)":"infinite","setHCUPerBlock(uint48)":"infinite","setMaxHCUDepthPerTx(uint48)":"infinite","setMaxHCUPerTx(uint48)":"infinite","upgradeToAndCall(address,bytes)":"infinite"},"internal":{"_adjustAndCheckFheTransactionLimitOneOp(uint256,address,bytes32,bytes32)":"infinite","_adjustAndCheckFheTransactionLimitThreeOps(uint256,address,bytes32,bytes32,bytes32,bytes32)":"infinite","_adjustAndCheckFheTransactionLimitTwoOps(uint256,address,bytes32,bytes32,bytes32)":"infinite","_maxHandleHcu(bytes32,bytes32)":"infinite","_maxHcu(uint256,uint256)":"infinite"}},"id":17}